{
  "_format": "hh-sol-artifact-1",
  "contractName": "AegisCare",
  "sourceName": "contracts/AegisCare.sol",
  "abi": [
    {
      "inputs": [],
      "stateMutability": "nonpayable",
      "type": "constructor"
    },
    {
      "inputs": [],
      "name": "ContractPaused",
      "type": "error"
    },
    {
      "inputs": [],
      "name": "InvalidEncryptedInput",
      "type": "error"
    },
    {
      "inputs": [],
      "name": "MaxTrialsReached",
      "type": "error"
    },
    {
      "inputs": [],
      "name": "NotAuthorized",
      "type": "error"
    },
    {
      "inputs": [],
      "name": "PatientNotFound",
      "type": "error"
    },
    {
      "inputs": [
        {
          "internalType": "bytes32",
          "name": "handle",
          "type": "bytes32"
        },
        {
          "internalType": "address",
          "name": "sender",
          "type": "address"
        }
      ],
      "name": "SenderNotAllowedToUseHandle",
      "type": "error"
    },
    {
      "inputs": [],
      "name": "TrialNotFound",
      "type": "error"
    },
    {
      "inputs": [],
      "name": "UnauthorizedAccess",
      "type": "error"
    },
    {
      "inputs": [],
      "name": "ZamaProtocolUnsupported",
      "type": "error"
    },
    {
      "anonymous": false,
      "inputs": [
        {
          "indexed": true,
          "internalType": "uint256",
          "name": "resultId",
          "type": "uint256"
        },
        {
          "indexed": true,
          "internalType": "uint256",
          "name": "trialId",
          "type": "uint256"
        },
        {
          "indexed": true,
          "internalType": "uint256",
          "name": "patientId",
          "type": "uint256"
        },
        {
          "indexed": false,
          "internalType": "uint256",
          "name": "computedAt",
          "type": "uint256"
        }
      ],
      "name": "EligibilityComputed",
      "type": "event"
    },
    {
      "anonymous": false,
      "inputs": [
        {
          "indexed": true,
          "internalType": "uint256",
          "name": "patientId",
          "type": "uint256"
        },
        {
          "indexed": true,
          "internalType": "address",
          "name": "patientAddress",
          "type": "address"
        },
        {
          "indexed": false,
          "internalType": "bytes32",
          "name": "publicKeyHash",
          "type": "bytes32"
        },
        {
          "indexed": false,
          "internalType": "uint256",
          "name": "registeredAt",
          "type": "uint256"
        }
      ],
      "name": "PatientRegistered",
      "type": "event"
    },
    {
      "anonymous": false,
      "inputs": [
        {
          "indexed": true,
          "internalType": "uint256",
          "name": "trialId",
          "type": "uint256"
        },
        {
          "indexed": false,
          "internalType": "string",
          "name": "trialName",
          "type": "string"
        },
        {
          "indexed": true,
          "internalType": "address",
          "name": "sponsor",
          "type": "address"
        },
        {
          "indexed": false,
          "internalType": "uint256",
          "name": "createdAt",
          "type": "uint256"
        }
      ],
      "name": "TrialRegistered",
      "type": "event"
    },
    {
      "inputs": [
        {
          "internalType": "uint256",
          "name": "_trialId",
          "type": "uint256"
        }
      ],
      "name": "checkEligibility",
      "outputs": [],
      "stateMutability": "nonpayable",
      "type": "function"
    },
    {
      "inputs": [
        {
          "internalType": "uint256",
          "name": "_trialId",
          "type": "uint256"
        },
        {
          "internalType": "address",
          "name": "_patientAddress",
          "type": "address"
        }
      ],
      "name": "computeEligibility",
      "outputs": [],
      "stateMutability": "nonpayable",
      "type": "function"
    },
    {
      "inputs": [],
      "name": "confidentialProtocolId",
      "outputs": [
        {
          "internalType": "uint256",
          "name": "",
          "type": "uint256"
        }
      ],
      "stateMutability": "view",
      "type": "function"
    },
    {
      "inputs": [
        {
          "internalType": "uint256",
          "name": "_trialId",
          "type": "uint256"
        }
      ],
      "name": "deactivateTrial",
      "outputs": [],
      "stateMutability": "nonpayable",
      "type": "function"
    },
    {
      "inputs": [
        {
          "internalType": "uint256",
          "name": "",
          "type": "uint256"
        },
        {
          "internalType": "uint256",
          "name": "",
          "type": "uint256"
        }
      ],
      "name": "eligibilityResults",
      "outputs": [
        {
          "internalType": "uint256",
          "name": "resultId",
          "type": "uint256"
        },
        {
          "internalType": "uint256",
          "name": "trialId",
          "type": "uint256"
        },
        {
          "internalType": "uint256",
          "name": "patientId",
          "type": "uint256"
        },
        {
          "internalType": "euint8",
          "name": "isEligible",
          "type": "bytes32"
        },
        {
          "internalType": "bool",
          "name": "decryptable",
          "type": "bool"
        },
        {
          "internalType": "bool",
          "name": "computed",
          "type": "bool"
        },
        {
          "internalType": "uint256",
          "name": "computedAt",
          "type": "uint256"
        }
      ],
      "stateMutability": "view",
      "type": "function"
    },
    {
      "inputs": [
        {
          "internalType": "uint256",
          "name": "_trialId",
          "type": "uint256"
        },
        {
          "internalType": "address",
          "name": "_patientAddress",
          "type": "address"
        }
      ],
      "name": "getEligibilityResult",
      "outputs": [
        {
          "internalType": "euint8",
          "name": "",
          "type": "bytes32"
        }
      ],
      "stateMutability": "view",
      "type": "function"
    },
    {
      "inputs": [
        {
          "internalType": "address",
          "name": "_patient",
          "type": "address"
        }
      ],
      "name": "getPatientEligibilityChecks",
      "outputs": [
        {
          "internalType": "uint256[]",
          "name": "",
          "type": "uint256[]"
        }
      ],
      "stateMutability": "view",
      "type": "function"
    },
    {
      "inputs": [
        {
          "internalType": "address",
          "name": "_patientAddress",
          "type": "address"
        }
      ],
      "name": "getPatientInfo",
      "outputs": [
        {
          "internalType": "uint256",
          "name": "patientId",
          "type": "uint256"
        },
        {
          "internalType": "bytes32",
          "name": "publicKeyHash",
          "type": "bytes32"
        },
        {
          "internalType": "uint256",
          "name": "registeredAt",
          "type": "uint256"
        }
      ],
      "stateMutability": "view",
      "type": "function"
    },
    {
      "inputs": [
        {
          "internalType": "address",
          "name": "_sponsor",
          "type": "address"
        }
      ],
      "name": "getSponsorTrialCount",
      "outputs": [
        {
          "internalType": "uint256",
          "name": "",
          "type": "uint256"
        }
      ],
      "stateMutability": "view",
      "type": "function"
    },
    {
      "inputs": [
        {
          "internalType": "address",
          "name": "_sponsor",
          "type": "address"
        }
      ],
      "name": "getSponsorTrials",
      "outputs": [
        {
          "internalType": "uint256[]",
          "name": "",
          "type": "uint256[]"
        }
      ],
      "stateMutability": "view",
      "type": "function"
    },
    {
      "inputs": [
        {
          "internalType": "uint256",
          "name": "_trialId",
          "type": "uint256"
        }
      ],
      "name": "getTrialInfo",
      "outputs": [
        {
          "internalType": "uint256",
          "name": "trialId",
          "type": "uint256"
        },
        {
          "internalType": "string",
          "name": "trialName",
          "type": "string"
        },
        {
          "internalType": "string",
          "name": "description",
          "type": "string"
        },
        {
          "internalType": "address",
          "name": "sponsor",
          "type": "address"
        },
        {
          "internalType": "bool",
          "name": "isActive",
          "type": "bool"
        },
        {
          "internalType": "uint256",
          "name": "createdAt",
          "type": "uint256"
        },
        {
          "internalType": "uint256",
          "name": "participantCount",
          "type": "uint256"
        }
      ],
      "stateMutability": "view",
      "type": "function"
    },
    {
      "inputs": [
        {
          "internalType": "uint256",
          "name": "_trialId",
          "type": "uint256"
        }
      ],
      "name": "getTrialPublicInfo",
      "outputs": [
        {
          "internalType": "string",
          "name": "trialName",
          "type": "string"
        },
        {
          "internalType": "string",
          "name": "description",
          "type": "string"
        },
        {
          "internalType": "address",
          "name": "sponsor",
          "type": "address"
        },
        {
          "internalType": "bool",
          "name": "isActive",
          "type": "bool"
        },
        {
          "internalType": "uint256",
          "name": "createdAt",
          "type": "uint256"
        },
        {
          "internalType": "uint256",
          "name": "participantCount",
          "type": "uint256"
        }
      ],
      "stateMutability": "view",
      "type": "function"
    },
    {
      "inputs": [
        {
          "internalType": "address",
          "name": "_patientAddress",
          "type": "address"
        }
      ],
      "name": "isPatientRegistered",
      "outputs": [
        {
          "internalType": "bool",
          "name": "",
          "type": "bool"
        }
      ],
      "stateMutability": "view",
      "type": "function"
    },
    {
      "inputs": [],
      "name": "owner",
      "outputs": [
        {
          "internalType": "address",
          "name": "",
          "type": "address"
        }
      ],
      "stateMutability": "view",
      "type": "function"
    },
    {
      "inputs": [],
      "name": "patientCount",
      "outputs": [
        {
          "internalType": "uint256",
          "name": "",
          "type": "uint256"
        }
      ],
      "stateMutability": "view",
      "type": "function"
    },
    {
      "inputs": [
        {
          "internalType": "address",
          "name": "",
          "type": "address"
        },
        {
          "internalType": "uint256",
          "name": "",
          "type": "uint256"
        }
      ],
      "name": "patientEligibilityChecks",
      "outputs": [
        {
          "internalType": "uint256",
          "name": "",
          "type": "uint256"
        }
      ],
      "stateMutability": "view",
      "type": "function"
    },
    {
      "inputs": [
        {
          "internalType": "address",
          "name": "",
          "type": "address"
        }
      ],
      "name": "patients",
      "outputs": [
        {
          "internalType": "uint256",
          "name": "patientId",
          "type": "uint256"
        },
        {
          "internalType": "euint8",
          "name": "age",
          "type": "bytes32"
        },
        {
          "internalType": "euint8",
          "name": "gender",
          "type": "bytes32"
        },
        {
          "internalType": "euint128",
          "name": "bmiScore",
          "type": "bytes32"
        },
        {
          "internalType": "euint8",
          "name": "hasMedicalCondition",
          "type": "bytes32"
        },
        {
          "internalType": "euint32",
          "name": "conditionCode",
          "type": "bytes32"
        },
        {
          "internalType": "bytes32",
          "name": "publicKeyHash",
          "type": "bytes32"
        },
        {
          "internalType": "uint256",
          "name": "registeredAt",
          "type": "uint256"
        }
      ],
      "stateMutability": "view",
      "type": "function"
    },
    {
      "inputs": [],
      "name": "pause",
      "outputs": [],
      "stateMutability": "nonpayable",
      "type": "function"
    },
    {
      "inputs": [],
      "name": "paused",
      "outputs": [
        {
          "internalType": "bool",
          "name": "",
          "type": "bool"
        }
      ],
      "stateMutability": "view",
      "type": "function"
    },
    {
      "inputs": [
        {
          "internalType": "externalEuint8",
          "name": "age",
          "type": "bytes32"
        },
        {
          "internalType": "externalEuint8",
          "name": "gender",
          "type": "bytes32"
        },
        {
          "internalType": "externalEuint128",
          "name": "bmiScore",
          "type": "bytes32"
        },
        {
          "internalType": "externalEuint8",
          "name": "hasMedicalCondition",
          "type": "bytes32"
        },
        {
          "internalType": "externalEuint32",
          "name": "conditionCode",
          "type": "bytes32"
        },
        {
          "internalType": "bytes",
          "name": "attestation",
          "type": "bytes"
        },
        {
          "internalType": "bytes32",
          "name": "publicKeyHash",
          "type": "bytes32"
        }
      ],
      "name": "registerPatient",
      "outputs": [],
      "stateMutability": "nonpayable",
      "type": "function"
    },
    {
      "inputs": [
        {
          "internalType": "string",
          "name": "_trialName",
          "type": "string"
        },
        {
          "internalType": "string",
          "name": "_description",
          "type": "string"
        },
        {
          "internalType": "externalEuint32",
          "name": "_minAge",
          "type": "bytes32"
        },
        {
          "internalType": "externalEuint32",
          "name": "_maxAge",
          "type": "bytes32"
        },
        {
          "internalType": "externalEuint8",
          "name": "_requiredGender",
          "type": "bytes32"
        },
        {
          "internalType": "externalEuint128",
          "name": "_minBMIScore",
          "type": "bytes32"
        },
        {
          "internalType": "externalEuint128",
          "name": "_maxBMIScore",
          "type": "bytes32"
        },
        {
          "internalType": "externalEuint8",
          "name": "_hasSpecificCondition",
          "type": "bytes32"
        },
        {
          "internalType": "externalEuint32",
          "name": "_conditionCode",
          "type": "bytes32"
        },
        {
          "internalType": "bytes",
          "name": "_attestation",
          "type": "bytes"
        }
      ],
      "name": "registerTrial",
      "outputs": [
        {
          "internalType": "uint256",
          "name": "",
          "type": "uint256"
        }
      ],
      "stateMutability": "nonpayable",
      "type": "function"
    },
    {
      "inputs": [
        {
          "internalType": "address",
          "name": "",
          "type": "address"
        },
        {
          "internalType": "uint256",
          "name": "",
          "type": "uint256"
        }
      ],
      "name": "sponsorTrials",
      "outputs": [
        {
          "internalType": "uint256",
          "name": "",
          "type": "uint256"
        }
      ],
      "stateMutability": "view",
      "type": "function"
    },
    {
      "inputs": [
        {
          "internalType": "address",
          "name": "_newOwner",
          "type": "address"
        }
      ],
      "name": "transferOwnership",
      "outputs": [],
      "stateMutability": "nonpayable",
      "type": "function"
    },
    {
      "inputs": [],
      "name": "trialCount",
      "outputs": [
        {
          "internalType": "uint256",
          "name": "",
          "type": "uint256"
        }
      ],
      "stateMutability": "view",
      "type": "function"
    },
    {
      "inputs": [
        {
          "internalType": "uint256",
          "name": "",
          "type": "uint256"
        }
      ],
      "name": "trials",
      "outputs": [
        {
          "internalType": "uint256",
          "name": "trialId",
          "type": "uint256"
        },
        {
          "internalType": "string",
          "name": "trialName",
          "type": "string"
        },
        {
          "internalType": "string",
          "name": "description",
          "type": "string"
        },
        {
          "internalType": "euint32",
          "name": "minAge",
          "type": "bytes32"
        },
        {
          "internalType": "euint32",
          "name": "maxAge",
          "type": "bytes32"
        },
        {
          "internalType": "euint8",
          "name": "requiredGender",
          "type": "bytes32"
        },
        {
          "internalType": "euint128",
          "name": "minBMIScore",
          "type": "bytes32"
        },
        {
          "internalType": "euint128",
          "name": "maxBMIScore",
          "type": "bytes32"
        },
        {
          "internalType": "euint8",
          "name": "hasSpecificCondition",
          "type": "bytes32"
        },
        {
          "internalType": "euint32",
          "name": "conditionCode",
          "type": "bytes32"
        },
        {
          "internalType": "address",
          "name": "sponsor",
          "type": "address"
        },
        {
          "internalType": "bool",
          "name": "isActive",
          "type": "bool"
        },
        {
          "internalType": "uint256",
          "name": "createdAt",
          "type": "uint256"
        },
        {
          "internalType": "uint256",
          "name": "participantCount",
          "type": "uint256"
        }
      ],
      "stateMutability": "view",
      "type": "function"
    },
    {
      "inputs": [],
      "name": "unpause",
      "outputs": [],
      "stateMutability": "nonpayable",
      "type": "function"
    }
  ],
  "bytecode": "0x6080604052346102355761001161026c565b50466001036101515761002261026c565b5061002b610239565b73ca2e8f1f656cd25c01f05d0b243ab1ecd4a8ffb6815273d82385dada1ae3e969447f20a3164f6213100e7560208201527377627828a55156b04ac0dc0eb30467f1a552bb0360408201525b80517f9e7b61f58c47dc699ac88507c4f5bb9f121c03808c5676a8078fe583e464970080546001600160a01b03199081166001600160a01b039384161790915560208301517f9e7b61f58c47dc699ac88507c4f5bb9f121c03808c5676a8078fe583e4649701805483169184169190911790556040928301517f9e7b61f58c47dc699ac88507c4f5bb9f121c03808c5676a8078fe583e464970280549092169216919091179055600780546001600160a81b0319163360081b610100600160a81b03161790555f80805560015551611c2290816102878239f35b4662aa36a7036101bc5761016361026c565b5061016c610239565b73f0ffdc93b7e186bc2f8cb3daa75d86d1930a433d81527392c920834ec8941d2c77d188936e1f7a6f49c127602082015273be0e383937d564d7ff0bc3b46c51f0bf8d5c311a6040820152610077565b46617a6903610226576101cd61026c565b506101d6610239565b7350157cffd6bbfa2dece204a89ec419c23ef5755d815273e3a9105a3a932253a70f126eb1e3b589c643dd24602082015273901f8942346f7ab3a01f6d7613119bca447bb0306040820152610077565b6373cac13b60e01b5f5260045ffd5b5f80fd5b60405190606082016001600160401b0381118382101761025857604052565b634e487b7160e01b5f52604160045260245ffd5b610274610239565b905f82525f60208301525f604083015256fe6080806040526004361015610012575f80fd5b5f3560e01c908162e8e81d1461132257508063010b5c1f146112a35780630869cfbc1461121e5780630df93389146111d55780630e89a55314610fc95780630fafb02e14610f6e5780631cc4d75214610f365780631de5686a14610f1a578063202229d214610e815780633f4ba83a14610e515780634b42617814610e025780634fd3ddda14610daa5780635c975abb14610d8857806368474f71146108165780637b39fed6146106c55780637e6d4f681461064357806380b6b1b8146106095780638456cb59146105d65780638927b030146105b45780638da5cb5b1461058857806395a8bd15146104e8578063a0303c41146104cb578063cbd7b775146102f7578063cf36002d14610200578063dd1f5416146101a05763f2fde38b14610139575f80fd5b3461019c57602036600319011261019c5761015261138f565b60075490600882901c6001600160a01b0316330361018d57610100600160a81b031990911660089190911b610100600160a81b031617600755005b631a27eac360e11b5f5260045ffd5b5f80fd5b3461019c57602036600319011261019c576004355f818152600260205260409020600a01546001600160a01b031633036101f1575f908152600260205260409020600a01805460ff60a01b19169055005b63ea8e4eb560e01b5f5260045ffd5b3461019c57602036600319011261019c576004355f52600260205260405f2080546001820161022e906114e2565b9161023b600282016114e2565b6003820154916004810154600582015460068301546007840154600885015491600986015493600a87015495600b88015497600c0154986040519c8d9c8d5260208d016101c090526101c08d016102919161144a565b8c810360408e01526102a29161144a565b9960608c015260808b015260a08a015260c089015260e0880152610100870152610120860152600160a01b60019003811661014086015260a01c60ff1615156101608501526101808401526101a08301520390f35b3461019c57604036600319011261019c576004356103136113a5565b9060ff600754166104bc576001600160a01b0382165f8181526003602052604090208054909190156104ad57825f52600260205260405f2080541561049e57600c0161035f8154611582565b905561037361036c611b57565b94856118d2565b5061037e30856118d2565b50620f4240830293838504620f4240148415171561048a5760056103a484548097611609565b95604051926103b2846114a6565b8784526020840187815260408501918383526060860190815260808601926001845260a08701926001845260c08801954287528b5f52600460205260405f20905f5260205260405f209751885551600188015551600287015551600386015561042e6004860192511515839060ff801983541691151516179055565b51151561ff0082549160081b169061ff001916179055519101555f52600560205261045c8360405f206115d5565b54917f2c159a4d5e68373a796ad24f9288e9a21240a127ba632ceba5e32cad0f6881206020604051428152a4005b634e487b7160e01b5f52601160045260245ffd5b630db925cb60e01b5f5260045ffd5b63595b36fd60e01b5f5260045ffd5b63ab35696f60e01b5f5260045ffd5b3461019c575f36600319011261019c576020600154604051908152f35b3461019c57602036600319011261019c576004355f52600260205260405f208054600a820154600b830154600c8401549060ff610560610536600261052f60018a016114e2565b98016114e2565b610552604051988998895260e060208a015260e089019061144a565b90878203604089015261144a565b9360018060a01b038116606087015260a01c161515608085015260a084015260c08301520390f35b3461019c575f36600319011261019c5760075460405160089190911c6001600160a01b03168152602090f35b3461019c575f36600319011261019c5760206105ce611a34565b604051908152f35b3461019c575f36600319011261019c57600754600881901c6001600160a01b0316330361018d5760ff1916600117600755005b3461019c57602036600319011261019c576001600160a01b0361062a61138f565b165f526003602052602060405f20541515604051908152f35b3461019c57602036600319011261019c576001600160a01b0361066461138f565b165f52600660205260405f206040519081602082549182815201915f5260205f20905f5b8181106106af576106ab8561069f818703826114c1565b604051918291826113bb565b0390f35b8254845260209093019260019283019201610688565b3461019c57602036600319011261019c5760043560ff600754166104bc57335f52600360205260405f20908154156104ad57805f52600260205260405f2080541561049e57600c016107178154611582565b9055610721611b57565b9161072c33846118d2565b5061073730846118d2565b50620f4240820292828404620f4240148315171561048a57600561075d83548096611609565b946040519261076b846114a6565b8684526020840186815260408501918383526060860190815260808601926001845260a08701926001845260c08801954287528a5f52600460205260405f20905f5260205260405f20975188555160018801555160028701555160038601556107e76004860192511515839060ff801983541691151516179055565b51151561ff0082549160081b169061ff00191617905551910155335f52600560205261045c8360405f206115d5565b3461019c5761014036600319011261019c576004356001600160401b03811161019c5761084790369060040161141d565b6024356001600160401b03811161019c5761086690369060040161141d565b919092610124356001600160401b03811161019c5761088990369060040161141d565b93909460ff600754166104bc57335f52600660205260405f2094603286541015610d79576108b75f54611582565b5f556108cf6108c736838a611590565b604435611814565b966108e66108de368484611590565b606435611814565b916108fd6108f5368385611590565b608435611616565b9161091461090c368484611590565b60a435611756565b61095861094f610930610928368787611590565b60c435611756565b9361094761093f368884611590565b60e435611616565b953691611590565b61010435611814565b935f54956040519c8d986101c08a01998a106001600160401b038b1117610c9d576109a48f9a916109958f8f908d8f606097604052523691611590565b9c60208d019d8e523691611590565b99604081019a8b52015260808d015260a08c015260c08b015260e08a0152610100890152610120880152336101408801526001610160880152426101808801525f6101a08801525f52600260205260405f209186518355518051906001600160401b038211610c9d578190610a1c600186015461146e565b601f8111610d29575b50602090601f8311600114610cbc575f92610cb1575b50508160011b915f199060031b1c19161760018301555b519485516001600160401b038111610c9d57610a71600284015461146e565b96601f8811610c59575b602097508790601f8311600114610bc3577fd7f73c54d6ce2e345bf6c2f008a3418ea55e0f8a22b16162b0081c08081bda76979383610b789694600c946101a0945f92610bb8575b50508160011b915f199060031b1c19161760028501555b606081015160038501556080810151600485015560a080820151600586015560c0820151600686015560e0820151600786015561010082015160088601556101208201516009860155610140820151600a860180546101608501516001600160a81b03199091166001600160a01b03939093169290921791151590921b60ff60a01b16179055610180810151600b85015501519101555f54906115d5565b5f5492839183604051916040835281604084015260608301375f6060858301015242868201526060813395601f80199101168101030190a3604051908152f35b015190508c80610ac3565b90600285015f52805f20915f5b601f1985168110610c42575093600184600c946101a0947fd7f73c54d6ce2e345bf6c2f008a3418ea55e0f8a22b16162b0081c08081bda769c98610b789a98601f19811610610c2a575b505050811b016002850155610ada565b01515f1960f88460031b161c191690558c8080610c1a565b91928a600181928685015181550194019201610bd0565b600284015f5260205f20601f830160051c810160208410610c96575b601f8a0160051c82018110610c8b575050610a7b565b5f8155600101610c75565b5080610c75565b634e487b7160e01b5f52604160045260245ffd5b015190508880610a3b565b9250600185015f52805f20905f935b601f1984168510610d0e576001945083601f19811610610cf6575b505050811b016001830155610a52565b01515f1960f88460031b161c19169055888080610ce6565b81810151835560209485019460019093019290910190610ccb565b909150600185015f5260205f20601f840160051c810160208510610d72575b90849392915b601f830160051c82018110610d64575050610a25565b5f8155859450600101610d4e565b5080610d48565b632457379b60e11b5f5260045ffd5b3461019c575f36600319011261019c57602060ff600754166040519015158152f35b3461019c57604036600319011261019c57610dc361138f565b6001600160a01b03165f9081526006602052604090208054602435919082101561019c57602091610df3916113f4565b90549060031b1c604051908152f35b3461019c57602036600319011261019c576001600160a01b03610e2361138f565b165f526003602052606060405f20805490600760068201549101549060405192835260208301526040820152f35b3461019c575f36600319011261019c57600754600881901c6001600160a01b0316330361018d5760ff1916600755005b3461019c57602036600319011261019c576004355f526002602052610ee460405f20600a810154600b820154600c8301549060ff610ef2610ed06002610ec9600189016114e2565b97016114e2565b60405197889760c0895260c089019061144a565b90878203602089015261144a565b9360018060a01b038116604087015260a01c1615156060850152608084015260a08301520390f35b3461019c575f36600319011261019c5760205f54604051908152f35b3461019c57602036600319011261019c576001600160a01b03610f5761138f565b165f526006602052602060405f2054604051908152f35b3461019c57604036600319011261019c576001600160a01b03610f8f6113a5565b168033036101f1576004355f52600460205260405f20905f52600360205260405f20545f526020526020600360405f200154604051908152f35b3461019c5760e036600319011261019c5760a4356001600160401b03811161019c57610ff990369060040161141d565b9060c4359160ff600754166104bc57335f52600360205260405f20546111c657611024600154611582565b60015561103d611035368385611590565b600435611616565b61105361104b368486611590565b602435611616565b61108e61108661106f611067368789611590565b604435611756565b9561094761107e368884611590565b606435611616565b608435611814565b61109830846118d2565b506110a330836118d2565b506110ae308661196c565b506110b930856118d2565b506110c430826119d0565b506110cf33846118d2565b506110da33836118d2565b506110e5338661196c565b506110f033856118d2565b506110fb33826119d0565b5060015493604051956101008701958787106001600160401b03881117610c9d5760079660405287526020870194855260408701938452606087019081526080870191825260a0870192835260c087019388855260e0880195428752335f52600360205260405f2098518955516001890155516002880155516003870155516004860155516005850155516006840155519101556001546040519182524260208301527f47336259ce8e91157b9813c07e1e9699e56667ed1e16d277ace641f30455a04760403393a3005b634fe47f7760e01b5f5260045ffd5b3461019c57604036600319011261019c576111ee61138f565b6001600160a01b03165f9081526005602052604090208054602435919082101561019c57602091610df3916113f4565b3461019c57602036600319011261019c576001600160a01b0361123f61138f565b165f52600360205261010060405f20805490600181015490600281015460038201546004830154906005840154926007600686015495015495604051978852602088015260408701526060860152608085015260a084015260c083015260e0820152f35b3461019c57604036600319011261019c576004355f52600460205260405f206024355f5260205260e060405f2080549060ff600182015491600281015460038201549060056004840154930154946040519687526020870152604086015260608501528181161515608085015260081c16151560a083015260c0820152f35b3461019c57602036600319011261019c576001600160a01b0361134361138f565b165f52600560205260405f20805480835260208301915f5260205f20905f5b818110611379576106ab8561069f818703826114c1565b8254845260209093019260019283019201611362565b600435906001600160a01b038216820361019c57565b602435906001600160a01b038216820361019c57565b60206040818301928281528451809452019201905f5b8181106113de5750505090565b82518452602093840193909201916001016113d1565b8054821015611409575f5260205f2001905f90565b634e487b7160e01b5f52603260045260245ffd5b9181601f8401121561019c578235916001600160401b03831161019c576020838186019501011161019c57565b805180835260209291819084018484015e5f828201840152601f01601f1916010190565b90600182811c9216801561149c575b602083101461148857565b634e487b7160e01b5f52602260045260245ffd5b91607f169161147d565b60e081019081106001600160401b03821117610c9d57604052565b90601f801991011681019081106001600160401b03821117610c9d57604052565b9060405191825f8254926114f58461146e565b8084529360018116908115611560575060011461151c575b5061151a925003836114c1565b565b90505f9291925260205f20905f915b81831061154457505090602061151a928201015f61150d565b602091935080600191548385890101520191019091849261152b565b90506020925061151a94915060ff191682840152151560051b8201015f61150d565b5f19811461048a5760010190565b9291926001600160401b038211610c9d57604051916115b9601f8201601f1916602001846114c1565b82948184528183011161019c578281602093845f960137010152565b8054600160401b811015610c9d576115f2916001820181556113f4565b819291549060031b91821b915f19901b1916179055565b9190820180921161048a57565b81519091901561172d575f516020611bd65f395f51905f525460405163045fc19560e11b81526004810193909352336024840152608060448401526001600160a01b03169061166990608484019061144a565b602091835f8180946002606483015203925af19081156116f0575f916116fb575b505f516020611bf65f395f51905f52546001600160a01b0316803b1561019c57604051630f8e573b60e21b815260048101839052336024820152905f908290818381604481015b03925af180156116f0576116e3575090565b5f6116ed916114c1565b90565b6040513d5f823e3d90fd5b90506020813d602011611725575b81611716602093836114c1565b8101031261019c57515f61168a565b3d9150611709565b506117383382611a63565b156117405790565b630276b5d960e01b5f526004523360245260445ffd5b81519091901561172d575f516020611bd65f395f51905f525460405163045fc19560e11b81526004810193909352336024840152608060448401526001600160a01b0316906117a990608484019061144a565b602091835f8180946006606483015203925af19081156116f0575f916116fb57505f516020611bf65f395f51905f52546001600160a01b0316803b1561019c57604051630f8e573b60e21b815260048101839052336024820152905f908290818381604481016116d1565b81519091901561172d575f516020611bd65f395f51905f525460405163045fc19560e11b81526004810193909352336024840152608060448401526001600160a01b03169061186790608484019061144a565b602091835f8180946004606483015203925af19081156116f0575f916116fb57505f516020611bf65f395f51905f52546001600160a01b0316803b1561019c57604051630f8e573b60e21b815260048101839052336024820152905f908290818381604481016116d1565b9081156118e4575b6116ed9082611aef565b5f516020611bd65f395f51905f5254604051639cd07acb60e01b81525f60048201529192506001600160a01b0316816044815f602094600260248401525af180156116f0575f90611938575b9190506118da565b506020813d602011611964575b81611952602093836114c1565b8101031261019c576116ed9051611930565b3d9150611945565b90811561197d576116ed9082611aef565b5f516020611bd65f395f51905f5254604051639cd07acb60e01b81525f60048201529192506001600160a01b0316816044815f602094600660248401525af180156116f0575f90611938579190506118da565b9081156119e1576116ed9082611aef565b5f516020611bd65f395f51905f5254604051639cd07acb60e01b81525f60048201529192506001600160a01b0316816044815f602094600460248401525af180156116f0575f90611938579190506118da565b46600103611a4157600190565b4662aa36a703611a515761271190565b617a694614611a5e575f90565b5f1990565b5f516020611bf65f395f51905f52546040516382027b6d60e01b815260048101929092526001600160a01b039283166024830152909160209183916044918391165afa9081156116f0575f91611ab7575090565b90506020813d602011611ae7575b81611ad2602093836114c1565b8101031261019c5751801515810361019c5790565b3d9150611ac5565b5f516020611bf65f395f51905f52546001600160a01b031691823b1561019c57604051635ca4b5b160e11b815260048101929092526001600160a01b03166024820152905f908290604490829084905af180156116f057611b4d5750565b5f61151a916114c1565b5f516020611bd65f395f51905f5254604051639cd07acb60e01b815260016004820152906001600160a01b0316816044815f602094600260248401525af19081156116f0575f91611ba6575090565b90506020813d602011611bcd575b81611bc1602093836114c1565b8101031261019c575190565b3d9150611bb456fe9e7b61f58c47dc699ac88507c4f5bb9f121c03808c5676a8078fe583e46497019e7b61f58c47dc699ac88507c4f5bb9f121c03808c5676a8078fe583e4649700a164736f6c634300081b000a",
  "linkReferences": {},
  "deployedLinkReferences": {}
}