{
  "_format": "hh-sol-artifact-1",
  "contractName": "AegisCare",
  "sourceName": "contracts/AegisCare.sol",
  "abi": [
    {
      "inputs": [],
      "stateMutability": "nonpayable",
      "type": "constructor"
    },
    {
      "inputs": [],
      "name": "ContractPaused",
      "type": "error"
    },
    {
      "inputs": [],
      "name": "InvalidEncryptedInput",
      "type": "error"
    },
    {
      "inputs": [],
      "name": "MaxTrialsReached",
      "type": "error"
    },
    {
      "inputs": [],
      "name": "NotAuthorized",
      "type": "error"
    },
    {
      "inputs": [],
      "name": "PatientNotFound",
      "type": "error"
    },
    {
      "inputs": [
        {
          "internalType": "bytes32",
          "name": "handle",
          "type": "bytes32"
        },
        {
          "internalType": "address",
          "name": "sender",
          "type": "address"
        }
      ],
      "name": "SenderNotAllowedToUseHandle",
      "type": "error"
    },
    {
      "inputs": [],
      "name": "TrialNotFound",
      "type": "error"
    },
    {
      "inputs": [],
      "name": "UnauthorizedAccess",
      "type": "error"
    },
    {
      "inputs": [],
      "name": "ZamaProtocolUnsupported",
      "type": "error"
    },
    {
      "anonymous": false,
      "inputs": [
        {
          "indexed": true,
          "internalType": "uint256",
          "name": "resultId",
          "type": "uint256"
        },
        {
          "indexed": true,
          "internalType": "uint256",
          "name": "trialId",
          "type": "uint256"
        },
        {
          "indexed": true,
          "internalType": "uint256",
          "name": "patientId",
          "type": "uint256"
        },
        {
          "indexed": false,
          "internalType": "uint256",
          "name": "computedAt",
          "type": "uint256"
        }
      ],
      "name": "EligibilityComputed",
      "type": "event"
    },
    {
      "anonymous": false,
      "inputs": [
        {
          "indexed": true,
          "internalType": "uint256",
          "name": "patientId",
          "type": "uint256"
        },
        {
          "indexed": true,
          "internalType": "address",
          "name": "patientAddress",
          "type": "address"
        },
        {
          "indexed": false,
          "internalType": "bytes32",
          "name": "publicKeyHash",
          "type": "bytes32"
        },
        {
          "indexed": false,
          "internalType": "uint256",
          "name": "registeredAt",
          "type": "uint256"
        }
      ],
      "name": "PatientRegistered",
      "type": "event"
    },
    {
      "anonymous": false,
      "inputs": [
        {
          "indexed": true,
          "internalType": "uint256",
          "name": "trialId",
          "type": "uint256"
        },
        {
          "indexed": false,
          "internalType": "string",
          "name": "trialName",
          "type": "string"
        },
        {
          "indexed": true,
          "internalType": "address",
          "name": "sponsor",
          "type": "address"
        },
        {
          "indexed": false,
          "internalType": "uint256",
          "name": "createdAt",
          "type": "uint256"
        }
      ],
      "name": "TrialRegistered",
      "type": "event"
    },
    {
      "inputs": [
        {
          "internalType": "uint256",
          "name": "_trialId",
          "type": "uint256"
        }
      ],
      "name": "checkEligibility",
      "outputs": [],
      "stateMutability": "nonpayable",
      "type": "function"
    },
    {
      "inputs": [
        {
          "internalType": "uint256",
          "name": "_trialId",
          "type": "uint256"
        },
        {
          "internalType": "address",
          "name": "_patientAddress",
          "type": "address"
        }
      ],
      "name": "computeEligibility",
      "outputs": [],
      "stateMutability": "nonpayable",
      "type": "function"
    },
    {
      "inputs": [],
      "name": "confidentialProtocolId",
      "outputs": [
        {
          "internalType": "uint256",
          "name": "",
          "type": "uint256"
        }
      ],
      "stateMutability": "view",
      "type": "function"
    },
    {
      "inputs": [
        {
          "internalType": "uint256",
          "name": "_trialId",
          "type": "uint256"
        }
      ],
      "name": "deactivateTrial",
      "outputs": [],
      "stateMutability": "nonpayable",
      "type": "function"
    },
    {
      "inputs": [
        {
          "internalType": "uint256",
          "name": "",
          "type": "uint256"
        },
        {
          "internalType": "uint256",
          "name": "",
          "type": "uint256"
        }
      ],
      "name": "eligibilityResults",
      "outputs": [
        {
          "internalType": "uint256",
          "name": "resultId",
          "type": "uint256"
        },
        {
          "internalType": "uint256",
          "name": "trialId",
          "type": "uint256"
        },
        {
          "internalType": "uint256",
          "name": "patientId",
          "type": "uint256"
        },
        {
          "internalType": "euint8",
          "name": "isEligible",
          "type": "bytes32"
        },
        {
          "internalType": "bool",
          "name": "decryptable",
          "type": "bool"
        },
        {
          "internalType": "bool",
          "name": "computed",
          "type": "bool"
        },
        {
          "internalType": "uint256",
          "name": "computedAt",
          "type": "uint256"
        }
      ],
      "stateMutability": "view",
      "type": "function"
    },
    {
      "inputs": [
        {
          "internalType": "uint256",
          "name": "_trialId",
          "type": "uint256"
        },
        {
          "internalType": "address",
          "name": "_patientAddress",
          "type": "address"
        }
      ],
      "name": "getEligibilityResult",
      "outputs": [
        {
          "internalType": "euint8",
          "name": "",
          "type": "bytes32"
        }
      ],
      "stateMutability": "view",
      "type": "function"
    },
    {
      "inputs": [
        {
          "internalType": "address",
          "name": "_patient",
          "type": "address"
        }
      ],
      "name": "getPatientEligibilityChecks",
      "outputs": [
        {
          "internalType": "uint256[]",
          "name": "",
          "type": "uint256[]"
        }
      ],
      "stateMutability": "view",
      "type": "function"
    },
    {
      "inputs": [
        {
          "internalType": "address",
          "name": "_patientAddress",
          "type": "address"
        }
      ],
      "name": "getPatientInfo",
      "outputs": [
        {
          "internalType": "uint256",
          "name": "patientId",
          "type": "uint256"
        },
        {
          "internalType": "bytes32",
          "name": "publicKeyHash",
          "type": "bytes32"
        },
        {
          "internalType": "uint256",
          "name": "registeredAt",
          "type": "uint256"
        }
      ],
      "stateMutability": "view",
      "type": "function"
    },
    {
      "inputs": [
        {
          "internalType": "address",
          "name": "_sponsor",
          "type": "address"
        }
      ],
      "name": "getSponsorTrialCount",
      "outputs": [
        {
          "internalType": "uint256",
          "name": "",
          "type": "uint256"
        }
      ],
      "stateMutability": "view",
      "type": "function"
    },
    {
      "inputs": [
        {
          "internalType": "address",
          "name": "_sponsor",
          "type": "address"
        }
      ],
      "name": "getSponsorTrials",
      "outputs": [
        {
          "internalType": "uint256[]",
          "name": "",
          "type": "uint256[]"
        }
      ],
      "stateMutability": "view",
      "type": "function"
    },
    {
      "inputs": [
        {
          "internalType": "uint256",
          "name": "_trialId",
          "type": "uint256"
        }
      ],
      "name": "getTrialInfo",
      "outputs": [
        {
          "internalType": "uint256",
          "name": "trialId",
          "type": "uint256"
        },
        {
          "internalType": "string",
          "name": "trialName",
          "type": "string"
        },
        {
          "internalType": "string",
          "name": "description",
          "type": "string"
        },
        {
          "internalType": "address",
          "name": "sponsor",
          "type": "address"
        },
        {
          "internalType": "bool",
          "name": "isActive",
          "type": "bool"
        },
        {
          "internalType": "uint256",
          "name": "createdAt",
          "type": "uint256"
        },
        {
          "internalType": "uint256",
          "name": "participantCount",
          "type": "uint256"
        },
        {
          "internalType": "string",
          "name": "trialPhase",
          "type": "string"
        },
        {
          "internalType": "uint256",
          "name": "compensation",
          "type": "uint256"
        },
        {
          "internalType": "string",
          "name": "location",
          "type": "string"
        },
        {
          "internalType": "uint256",
          "name": "durationWeeks",
          "type": "uint256"
        },
        {
          "internalType": "string",
          "name": "studyType",
          "type": "string"
        }
      ],
      "stateMutability": "view",
      "type": "function"
    },
    {
      "inputs": [
        {
          "internalType": "uint256",
          "name": "_trialId",
          "type": "uint256"
        }
      ],
      "name": "getTrialPublicInfo",
      "outputs": [
        {
          "internalType": "string",
          "name": "trialName",
          "type": "string"
        },
        {
          "internalType": "string",
          "name": "description",
          "type": "string"
        },
        {
          "internalType": "address",
          "name": "sponsor",
          "type": "address"
        },
        {
          "internalType": "bool",
          "name": "isActive",
          "type": "bool"
        },
        {
          "internalType": "uint256",
          "name": "createdAt",
          "type": "uint256"
        },
        {
          "internalType": "uint256",
          "name": "participantCount",
          "type": "uint256"
        }
      ],
      "stateMutability": "view",
      "type": "function"
    },
    {
      "inputs": [
        {
          "internalType": "address",
          "name": "_patientAddress",
          "type": "address"
        }
      ],
      "name": "isPatientRegistered",
      "outputs": [
        {
          "internalType": "bool",
          "name": "",
          "type": "bool"
        }
      ],
      "stateMutability": "view",
      "type": "function"
    },
    {
      "inputs": [],
      "name": "owner",
      "outputs": [
        {
          "internalType": "address",
          "name": "",
          "type": "address"
        }
      ],
      "stateMutability": "view",
      "type": "function"
    },
    {
      "inputs": [],
      "name": "patientCount",
      "outputs": [
        {
          "internalType": "uint256",
          "name": "",
          "type": "uint256"
        }
      ],
      "stateMutability": "view",
      "type": "function"
    },
    {
      "inputs": [
        {
          "internalType": "address",
          "name": "",
          "type": "address"
        },
        {
          "internalType": "uint256",
          "name": "",
          "type": "uint256"
        }
      ],
      "name": "patientEligibilityChecks",
      "outputs": [
        {
          "internalType": "uint256",
          "name": "",
          "type": "uint256"
        }
      ],
      "stateMutability": "view",
      "type": "function"
    },
    {
      "inputs": [
        {
          "internalType": "address",
          "name": "",
          "type": "address"
        }
      ],
      "name": "patients",
      "outputs": [
        {
          "internalType": "uint256",
          "name": "patientId",
          "type": "uint256"
        },
        {
          "internalType": "euint8",
          "name": "age",
          "type": "bytes32"
        },
        {
          "internalType": "euint8",
          "name": "gender",
          "type": "bytes32"
        },
        {
          "internalType": "euint128",
          "name": "bmiScore",
          "type": "bytes32"
        },
        {
          "internalType": "euint8",
          "name": "hasMedicalCondition",
          "type": "bytes32"
        },
        {
          "internalType": "euint32",
          "name": "conditionCode",
          "type": "bytes32"
        },
        {
          "internalType": "bytes32",
          "name": "publicKeyHash",
          "type": "bytes32"
        },
        {
          "internalType": "uint256",
          "name": "registeredAt",
          "type": "uint256"
        }
      ],
      "stateMutability": "view",
      "type": "function"
    },
    {
      "inputs": [],
      "name": "pause",
      "outputs": [],
      "stateMutability": "nonpayable",
      "type": "function"
    },
    {
      "inputs": [],
      "name": "paused",
      "outputs": [
        {
          "internalType": "bool",
          "name": "",
          "type": "bool"
        }
      ],
      "stateMutability": "view",
      "type": "function"
    },
    {
      "inputs": [
        {
          "internalType": "externalEuint8",
          "name": "age",
          "type": "bytes32"
        },
        {
          "internalType": "externalEuint8",
          "name": "gender",
          "type": "bytes32"
        },
        {
          "internalType": "externalEuint128",
          "name": "bmiScore",
          "type": "bytes32"
        },
        {
          "internalType": "externalEuint8",
          "name": "hasMedicalCondition",
          "type": "bytes32"
        },
        {
          "internalType": "externalEuint32",
          "name": "conditionCode",
          "type": "bytes32"
        },
        {
          "internalType": "bytes",
          "name": "attestation",
          "type": "bytes"
        },
        {
          "internalType": "bytes32",
          "name": "publicKeyHash",
          "type": "bytes32"
        }
      ],
      "name": "registerPatient",
      "outputs": [],
      "stateMutability": "nonpayable",
      "type": "function"
    },
    {
      "inputs": [
        {
          "internalType": "string",
          "name": "_trialName",
          "type": "string"
        },
        {
          "internalType": "string",
          "name": "_description",
          "type": "string"
        },
        {
          "internalType": "externalEuint32",
          "name": "_minAge",
          "type": "bytes32"
        },
        {
          "internalType": "externalEuint32",
          "name": "_maxAge",
          "type": "bytes32"
        },
        {
          "internalType": "externalEuint8",
          "name": "_requiredGender",
          "type": "bytes32"
        },
        {
          "internalType": "externalEuint128",
          "name": "_minBMIScore",
          "type": "bytes32"
        },
        {
          "internalType": "externalEuint128",
          "name": "_maxBMIScore",
          "type": "bytes32"
        },
        {
          "internalType": "externalEuint8",
          "name": "_hasSpecificCondition",
          "type": "bytes32"
        },
        {
          "internalType": "externalEuint32",
          "name": "_conditionCode",
          "type": "bytes32"
        },
        {
          "internalType": "bytes",
          "name": "_attestation",
          "type": "bytes"
        },
        {
          "internalType": "string",
          "name": "_trialPhase",
          "type": "string"
        },
        {
          "internalType": "uint256",
          "name": "_compensation",
          "type": "uint256"
        },
        {
          "internalType": "string",
          "name": "_location",
          "type": "string"
        },
        {
          "internalType": "uint256",
          "name": "_durationWeeks",
          "type": "uint256"
        },
        {
          "internalType": "string",
          "name": "_studyType",
          "type": "string"
        }
      ],
      "name": "registerTrial",
      "outputs": [
        {
          "internalType": "uint256",
          "name": "",
          "type": "uint256"
        }
      ],
      "stateMutability": "nonpayable",
      "type": "function"
    },
    {
      "inputs": [
        {
          "internalType": "address",
          "name": "",
          "type": "address"
        },
        {
          "internalType": "uint256",
          "name": "",
          "type": "uint256"
        }
      ],
      "name": "sponsorTrials",
      "outputs": [
        {
          "internalType": "uint256",
          "name": "",
          "type": "uint256"
        }
      ],
      "stateMutability": "view",
      "type": "function"
    },
    {
      "inputs": [
        {
          "internalType": "address",
          "name": "_newOwner",
          "type": "address"
        }
      ],
      "name": "transferOwnership",
      "outputs": [],
      "stateMutability": "nonpayable",
      "type": "function"
    },
    {
      "inputs": [],
      "name": "trialCount",
      "outputs": [
        {
          "internalType": "uint256",
          "name": "",
          "type": "uint256"
        }
      ],
      "stateMutability": "view",
      "type": "function"
    },
    {
      "inputs": [
        {
          "internalType": "uint256",
          "name": "",
          "type": "uint256"
        }
      ],
      "name": "trials",
      "outputs": [
        {
          "internalType": "uint256",
          "name": "trialId",
          "type": "uint256"
        },
        {
          "internalType": "string",
          "name": "trialName",
          "type": "string"
        },
        {
          "internalType": "string",
          "name": "description",
          "type": "string"
        },
        {
          "internalType": "euint32",
          "name": "minAge",
          "type": "bytes32"
        },
        {
          "internalType": "euint32",
          "name": "maxAge",
          "type": "bytes32"
        },
        {
          "internalType": "euint8",
          "name": "requiredGender",
          "type": "bytes32"
        },
        {
          "internalType": "euint128",
          "name": "minBMIScore",
          "type": "bytes32"
        },
        {
          "internalType": "euint128",
          "name": "maxBMIScore",
          "type": "bytes32"
        },
        {
          "internalType": "euint8",
          "name": "hasSpecificCondition",
          "type": "bytes32"
        },
        {
          "internalType": "euint32",
          "name": "conditionCode",
          "type": "bytes32"
        },
        {
          "internalType": "address",
          "name": "sponsor",
          "type": "address"
        },
        {
          "internalType": "bool",
          "name": "isActive",
          "type": "bool"
        },
        {
          "internalType": "uint256",
          "name": "createdAt",
          "type": "uint256"
        },
        {
          "internalType": "uint256",
          "name": "participantCount",
          "type": "uint256"
        },
        {
          "internalType": "string",
          "name": "trialPhase",
          "type": "string"
        },
        {
          "internalType": "uint256",
          "name": "compensation",
          "type": "uint256"
        },
        {
          "internalType": "string",
          "name": "location",
          "type": "string"
        },
        {
          "internalType": "uint256",
          "name": "durationWeeks",
          "type": "uint256"
        },
        {
          "internalType": "string",
          "name": "studyType",
          "type": "string"
        }
      ],
      "stateMutability": "view",
      "type": "function"
    },
    {
      "inputs": [],
      "name": "unpause",
      "outputs": [],
      "stateMutability": "nonpayable",
      "type": "function"
    }
  ],
  "bytecode": "0x6080604052346102355761001161026c565b50466001036101515761002261026c565b5061002b610239565b73ca2e8f1f656cd25c01f05d0b243ab1ecd4a8ffb6815273d82385dada1ae3e969447f20a3164f6213100e7560208201527377627828a55156b04ac0dc0eb30467f1a552bb0360408201525b80517f9e7b61f58c47dc699ac88507c4f5bb9f121c03808c5676a8078fe583e464970080546001600160a01b03199081166001600160a01b039384161790915560208301517f9e7b61f58c47dc699ac88507c4f5bb9f121c03808c5676a8078fe583e4649701805483169184169190911790556040928301517f9e7b61f58c47dc699ac88507c4f5bb9f121c03808c5676a8078fe583e464970280549092169216919091179055600780546001600160a81b0319163360081b610100600160a81b03161790555f808055600155516128d990816102878239f35b4662aa36a7036101bc5761016361026c565b5061016c610239565b73f0ffdc93b7e186bc2f8cb3daa75d86d1930a433d81527392c920834ec8941d2c77d188936e1f7a6f49c127602082015273be0e383937d564d7ff0bc3b46c51f0bf8d5c311a6040820152610077565b46617a6903610226576101cd61026c565b506101d6610239565b7350157cffd6bbfa2dece204a89ec419c23ef5755d815273e3a9105a3a932253a70f126eb1e3b589c643dd24602082015273901f8942346f7ab3a01f6d7613119bca447bb0306040820152610077565b6373cac13b60e01b5f5260045ffd5b5f80fd5b60405190606082016001600160401b0381118382101761025857604052565b634e487b7160e01b5f52604160045260245ffd5b610274610239565b905f82525f60208301525f604083015256fe6102a0806040526004361015610013575f80fd5b5f3560e01c908162e8e81d14611ac057508063010b5c1f14611a415780630869cfbc146119bc5780630b45c74314610f3d5780630df9338914610ef45780630e89a55314610cd15780630fafb02e14610c765780631cc4d75214610c3e5780631de5686a14610c22578063202229d214610b895780633f4ba83a14610b595780634b42617814610b0a5780634fd3ddda14610ab25780635c975abb14610a905780637b39fed6146108cf5780637e6d4f681461085157806380b6b1b8146108175780638456cb59146107e45780638927b030146107c25780638da5cb5b1461079657806395a8bd1514610679578063a0303c411461065c578063cbd7b775146103bf578063cf36002d14610201578063dd1f5416146101a15763f2fde38b1461013a575f80fd5b3461019d57602036600319011261019d57610153611b2d565b60075490600882901c6001600160a01b0316330361018e57610100600160a81b031990911660089190911b610100600160a81b031617600755005b631a27eac360e11b5f5260045ffd5b5f80fd5b3461019d57602036600319011261019d576004355f818152600260205260409020600a01546001600160a01b031633036101f2575f908152600260205260409020600a01805460ff60a01b19169055005b63ea8e4eb560e01b5f5260045ffd5b3461019d57602036600319011261019d576004355f52600260205260405f208080546001820161023090611c80565b60e05261023f60028301611c80565b61010052600382015460048301546005840154600685015460078601546008870154600988015491600a89015493600b8a015495600c8b015497600d8c0161028690611c80565b9a600e8d01549c600f0161029990611c80565b9d60108101546080526011016102ae90611c80565b60a05260405160c05260c0515260c051602001610260905260c0516102600160e051906102da91611be8565b60c051810360c0516040015261010051906102f491611be8565b9960c0516060015260c0516080015260c05160a0015260c05160c0015260c05160e0015260c051610100015260c0516101200152600160a01b60019003811660c051610140015260a01c60ff16151560c051610160015260c051610180015260c0516101a0015260c051810360c0516101c0015261037191611be8565b9060c0516101e0015260c051810360c051610200015261039091611be8565b60805160c051610220015260c051810360c051610240015260c0519060a051906103b991611be8565b0360c051f35b3461019d57604036600319011261019d576004356103db611b43565b9060ff6007541661064d576001600160a01b0382165f81815260036020526040902080549091901561063e57825f52600260205260405f2080541561062f576104fd6104f882600c61050494016104328154611d20565b905561045e6104646001880161045e6104518254600387015490612124565b9154600486015490612168565b906121ac565b6104ec61047a60028a0154600586015490612261565b6104ec6104a460038c0161045e610497825460068b015490612290565b915460078a0154906122bf565b956104f28c6104ec6104e660046104db6104ca60088801546104c4612705565b90612261565b9660096005870154910154906122ee565b9301546104c4612705565b93612317565b926121ac565b9061237f565b612405565b94856120e8565b5061050f30856120e8565b50620f4240830293838504620f4240148415171561061b57600561053584548097611da7565b956040519261054384611c44565b8784526020840187815260408501918383526060860190815260808601926001845260a08701926001845260c08801954287528b5f52600460205260405f20905f5260205260405f20975188555160018801555160028701555160038601556105bf6004860192511515839060ff801983541691151516179055565b51151561ff0082549160081b169061ff001916179055519101555f5260056020526105ed8360405f20611d73565b54917f2c159a4d5e68373a796ad24f9288e9a21240a127ba632ceba5e32cad0f6881206020604051428152a4005b634e487b7160e01b5f52601160045260245ffd5b630db925cb60e01b5f5260045ffd5b63595b36fd60e01b5f5260045ffd5b63ab35696f60e01b5f5260045ffd5b3461019d575f36600319011261019d576020600154604051908152f35b3461019d57602036600319011261019d576004355f52600260205260405f208054600a82015491600b810154600c82015491600e810154601082015492600183016106c390611c80565b966106d060028501611c80565b956106dd600d8601611c80565b926106ea600f8701611c80565b956011016106f790611c80565b976040519a8b9a8b5260208b0161018090526101808b0161071791611be8565b8a810360408c015261072891611be8565b6001600160a01b03841660608b015260ff60a094851c16151560808b01529289015260c088015286810360e088015261076091611be8565b9061010086015284810361012086015261077991611be8565b9061014084015282810361016084015261079291611be8565b0390f35b3461019d575f36600319011261019d5760075460405160089190911c6001600160a01b03168152602090f35b3461019d575f36600319011261019d5760206107dc61246a565b604051908152f35b3461019d575f36600319011261019d57600754600881901c6001600160a01b0316330361018e5760ff1916600117600755005b3461019d57602036600319011261019d576001600160a01b03610838611b2d565b165f526003602052602060405f20541515604051908152f35b3461019d57602036600319011261019d576001600160a01b03610872611b2d565b165f52600660205260405f206040519081602082549182815201915f5260205f20905f5b8181106108b957610792856108ad81870382611c5f565b60405191829182611b59565b8254845260209093019260019283019201610896565b3461019d57602036600319011261019d5760043560ff6007541661064d57335f52600360205260405f209081541561063e57805f52600260205260405f2080541561062f576104f881600c61099b93016109298154611d20565b905561045e6109486001870161045e6104518254600387015490612124565b6104ec61095e6002890154600586015490612261565b6104ec61097b60038b0161045e610497825460068b015490612290565b956104f28b6104ec6104e660046104db6104ca60088801546104c4612705565b916109a633846120e8565b506109b130846120e8565b50620f4240820292828404620f4240148315171561061b5760056109d783548096611da7565b94604051926109e584611c44565b8684526020840186815260408501918383526060860190815260808601926001845260a08701926001845260c08801954287528a5f52600460205260405f20905f5260205260405f2097518855516001880155516002870155516003860155610a616004860192511515839060ff801983541691151516179055565b51151561ff0082549160081b169061ff00191617905551910155335f5260056020526105ed8360405f20611d73565b3461019d575f36600319011261019d57602060ff600754166040519015158152f35b3461019d57604036600319011261019d57610acb611b2d565b6001600160a01b03165f9081526006602052604090208054602435919082101561019d57602091610afb91611bbf565b90549060031b1c604051908152f35b3461019d57602036600319011261019d576001600160a01b03610b2b611b2d565b165f526003602052606060405f20805490600760068201549101549060405192835260208301526040820152f35b3461019d575f36600319011261019d57600754600881901c6001600160a01b0316330361018e5760ff1916600755005b3461019d57602036600319011261019d576004355f526002602052610bec60405f20600a810154600b820154600c8301549060ff610bfa610bd86002610bd160018901611c80565b9701611c80565b60405197889760c0895260c0890190611be8565b908782036020890152611be8565b9360018060a01b038116604087015260a01c1615156060850152608084015260a08301520390f35b3461019d575f36600319011261019d5760205f54604051908152f35b3461019d57602036600319011261019d576001600160a01b03610c5f611b2d565b165f526006602052602060405f2054604051908152f35b3461019d57604036600319011261019d576001600160a01b03610c97611b43565b168033036101f2576004355f52600460205260405f20905f52600360205260405f20545f526020526020600360405f200154604051908152f35b3461019d5760e036600319011261019d5760a4356001600160401b03811161019d57610d01903690600401611b92565b9060c4359160ff6007541661064d57335f52600360205260405f2054610ee557610d2c600154611d20565b600155610d45610d3d368385611d2e565b600435611ef4565b610d5b610d53368486611d2e565b602435611ef4565b610d9e610d96610d77610d6f368789611d2e565b604435611fb2565b95610d8e610d86368884611d2e565b606435611ef4565b953691611d2e565b608435611db4565b610da78361208f565b50610db18261208f565b50610dbb856120a8565b50610dc58461208f565b50610dcf81612070565b50610dda33846120e8565b50610de533836120e8565b50610df03386612106565b50610dfb33856120e8565b50610e0633826120c1565b5060015493604051956101008701958787106001600160401b03881117610ed15760079660405287526020870194855260408701938452606087019081526080870191825260a0870192835260c087019388855260e0880195428752335f52600360205260405f2098518955516001890155516002880155516003870155516004860155516005850155516006840155519101556001546040519182524260208301527f47336259ce8e91157b9813c07e1e9699e56667ed1e16d277ace641f30455a04760403393a3005b634e487b7160e01b5f52604160045260245ffd5b634fe47f7760e01b5f5260045ffd5b3461019d57604036600319011261019d57610f0d611b2d565b6001600160a01b03165f9081526005602052604090208054602435919082101561019d57602091610afb91611bbf565b3461019d576101e036600319011261019d576004356001600160401b03811161019d57610f6e903690600401611b92565b610200526101e0526024356001600160401b03811161019d57610f95903690600401611b92565b610140526101c052610124356001600160401b03811161019d57610fbd903690600401611b92565b61028052610144356001600160401b03811161019d57610fe1903690600401611b92565b91610184356001600160401b03811161019d57611002903690600401611b92565b9061012052916101c4356001600160401b03811161019d57611028903690600401611b92565b610160526101805260ff6007541661064d57335f52600660205260405f20610240526032610240515410156119ad576110615f54611d20565b5f5561107c611074366102805185611d2e565b604435611db4565b9361109661108e366102805186611d2e565b606435611db4565b610260526110b36110ab366102805186611d2e565b608435611ef4565b926110cd6110c5366102805184611d2e565b60a435611fb2565b906110e76110df366102805184611d2e565b60c435611fb2565b61111c6111136111066110fe366102805187611d2e565b60e435611ef4565b9336906102805190611d2e565b61010435611db4565b9261112689612070565b5061113361026051612070565b5061113d8761208f565b50611147816120a8565b50611151826120a8565b5061115b8361208f565b5061116584612070565b50611170338a6120c1565b5061117e33610260516120c1565b5061118933886120e8565b506111943382612106565b5061119f3383612106565b506111aa33846120e8565b506111b533856120c1565b505f54610220526040516101a0526102606101a05101966101a05188106001600160401b03891117610ed1576112b49961129398604052610220516101a0515261120636610200516101e051611d2e565b60206101a051015261121f36610140516101c051611d2e565b60406101a051015260606101a05101526102605160806101a051015260a06101a051015260c06101a051015260e06101a05101526101006101a05101526101206101a0510152336101406101a051015260016101606101a0510152426101806101a05101525f6101a0805101523691611d2e565b6101c06101a0510152610164356101e06101a0510152369061012051611d2e565b6102006101a05101526101a4356102206101a05101526112db366101605161018051611d2e565b6102406101a0510152610220515f52600260205260405f206101a05151815560206101a05101518051906001600160401b038211610ed15781906113226001850154611c0c565b601f811161195d575b50602090601f83116001146118f0575f926118e5575b50508160011b915f199060031b1c19161760018201555b60406101a05101518051906001600160401b038211610ed15781906113806002850154611c0c565b601f8111611895575b50602090601f8311600114611828575f9261181d575b50508160011b915f199060031b1c19161760028201555b6101a08051606081015160038401556080810151600484015560a080820151600585015560c0820151600685015560e0820151600785015561010082015160088501556101208201516009850155610140820151600a850180546101608501516001600160a81b03199091166001600160a01b03939093169290921791151590921b60ff60a01b16179055610180810151600b84015590810151600c8301556101c001518051909190600d8201906001600160401b038111610ed15761147c8254611c0c565b601f81116117d8575b506020601f821160011461177757819293945f9261176c575b50508160011b915f199060031b1c19161790555b6101a0516101e0810151600e830155610200015180519190600f8201906001600160401b038411610ed1576114e78254611c0c565b601f8111611727575b50602090601f85116001146116c257601194915f91836116b7575b50508160011b915f199060031b1c19161790555b6102206101a05101516010820155016102406101a05101519081516001600160401b038111610ed1576115528254611c0c565b601f8111611672575b50602092601f821160011461161357928192935f92611608575b50508160011b915f199060031b1c19161790555b6115975f5461024051611d73565b60205f5460405160408152610200516040820152610200516101e05160608301375f606061020051830101524283820152817fd7f73c54d6ce2e345bf6c2f008a3418ea55e0f8a22b16162b0081c08081bda763392606081601f19601f6102005101168101030190a3604051908152f35b015190508380611575565b601f19821693835f52805f20915f5b86811061165a5750836001959610611642575b505050811b019055611589565b01515f1960f88460031b161c19169055838080611635565b91926020600181928685015181550194019201611622565b825f5260205f20601f830160051c810191602084106116ad575b601f0160051c01905b8181106116a2575061155b565b5f8155600101611695565b909150819061168c565b01519050858061150b565b90601f19851691835f52815f20925f5b81811061170f575091600193918760119894106116f7575b505050811b01905561151f565b01515f1960f88460031b161c191690558580806116ea565b929360206001819287860151815501950193016116d2565b825f5260205f20601f860160051c81019160208710611762575b601f0160051c01905b81811061175757506114f0565b5f815560010161174a565b9091508190611741565b01519050848061149e565b601f19821690835f52805f20915f5b8181106117c0575095836001959697106117a8575b505050811b0190556114b2565b01515f1960f88460031b161c1916905584808061179b565b9192602060018192868b015181550194019201611786565b825f5260205f20601f830160051c81019160208410611813575b601f0160051c01905b8181106118085750611485565b5f81556001016117fb565b90915081906117f2565b01519050838061139f565b9250600284015f52805f20905f935b601f198416851061187a576001945083601f19811610611862575b505050811b0160028201556113b6565b01515f1960f88460031b161c19169055838080611852565b81810151835560209485019460019093019290910190611837565b909150600284015f5260205f20601f840160051c8101602085106118de575b90849392915b601f830160051c820181106118d0575050611389565b5f81558594506001016118ba565b50806118b4565b015190508380611341565b9250600184015f52805f20905f935b601f1984168510611942576001945083601f1981161061192a575b505050811b016001820155611358565b01515f1960f88460031b161c1916905583808061191a565b818101518355602094850194600190930192909101906118ff565b909150600184015f5260205f20601f840160051c8101602085106119a6575b90849392915b601f830160051c8201811061199857505061132b565b5f8155859450600101611982565b508061197c565b632457379b60e11b5f5260045ffd5b3461019d57602036600319011261019d576001600160a01b036119dd611b2d565b165f52600360205261010060405f20805490600181015490600281015460038201546004830154906005840154926007600686015495015495604051978852602088015260408701526060860152608085015260a084015260c083015260e0820152f35b3461019d57604036600319011261019d576004355f52600460205260405f206024355f5260205260e060405f2080549060ff600182015491600281015460038201549060056004840154930154946040519687526020870152604086015260608501528181161515608085015260081c16151560a083015260c0820152f35b3461019d57602036600319011261019d576001600160a01b03611ae1611b2d565b165f52600560205260405f20805480835260208301915f5260205f20905f5b818110611b1757610792856108ad81870382611c5f565b8254845260209093019260019283019201611b00565b600435906001600160a01b038216820361019d57565b602435906001600160a01b038216820361019d57565b60206040818301928281528451809452019201905f5b818110611b7c5750505090565b8251845260209384019390920191600101611b6f565b9181601f8401121561019d578235916001600160401b03831161019d576020838186019501011161019d57565b8054821015611bd4575f5260205f2001905f90565b634e487b7160e01b5f52603260045260245ffd5b805180835260209291819084018484015e5f828201840152601f01601f1916010190565b90600182811c92168015611c3a575b6020831014611c2657565b634e487b7160e01b5f52602260045260245ffd5b91607f1691611c1b565b60e081019081106001600160401b03821117610ed157604052565b90601f801991011681019081106001600160401b03821117610ed157604052565b9060405191825f825492611c9384611c0c565b8084529360018116908115611cfe5750600114611cba575b50611cb892500383611c5f565b565b90505f9291925260205f20905f915b818310611ce2575050906020611cb8928201015f611cab565b6020919350806001915483858901015201910190918492611cc9565b905060209250611cb894915060ff191682840152151560051b8201015f611cab565b5f19811461061b5760010190565b9291926001600160401b038211610ed15760405191611d57601f8201601f191660200184611c5f565b82948184528183011161019d578281602093845f960137010152565b8054600160401b811015610ed157611d9091600182018155611bbf565b819291549060031b91821b915f19901b1916179055565b9190820180921161061b57565b815190919015611ecb575f51602061288d5f395f51905f525460405163045fc19560e11b81526004810193909352336024840152608060448401526001600160a01b031690611e07906084840190611be8565b602091835f8180946004606483015203925af1908115611e8e575f91611e99575b505f5160206128ad5f395f51905f52546001600160a01b0316803b1561019d57604051630f8e573b60e21b815260048101839052336024820152905f908290818381604481015b03925af18015611e8e57611e81575090565b5f611e8b91611c5f565b90565b6040513d5f823e3d90fd5b90506020813d602011611ec3575b81611eb460209383611c5f565b8101031261019d57515f611e28565b3d9150611ea7565b50611ed63382612499565b15611ede5790565b630276b5d960e01b5f526004523360245260445ffd5b815190919015611ecb575f51602061288d5f395f51905f525460405163045fc19560e11b81526004810193909352336024840152608060448401526001600160a01b031690611f47906084840190611be8565b602091835f8180946002606483015203925af1908115611e8e575f91611e9957505f5160206128ad5f395f51905f52546001600160a01b0316803b1561019d57604051630f8e573b60e21b815260048101839052336024820152905f90829081838160448101611e6f565b815190919015611ecb575f51602061288d5f395f51905f525460405163045fc19560e11b81526004810193909352336024840152608060448401526001600160a01b031690612005906084840190611be8565b602091835f8180946006606483015203925af1908115611e8e575f91611e9957505f5160206128ad5f395f51905f52546001600160a01b0316803b1561019d57604051630f8e573b60e21b815260048101839052336024820152905f90829081838160448101611e6f565b8015612081575b611e8b3082612525565b5061208a612754565b612077565b801561209f57611e8b3082612525565b5061208a6127a2565b80156120b857611e8b3082612525565b5061208a6127f0565b9081156120d3575b611e8b9082612525565b9050611e8b6120e0612754565b9190506120c9565b9081156120f957611e8b9082612525565b9050611e8b6120e06127a2565b90811561211757611e8b9082612525565b9050611e8b6120e06127f0565b90611e8b91801561215a575b8115612145575b6121409061258d565b6125f1565b9050612140612152612754565b919050612137565b506121636127a2565b612130565b90611e8b91801561219e575b8115612189575b6121849061258d565b61264d565b9050612184612196612754565b91905061217b565b506121a76127a2565b612174565b908115612250575b801561223d575b602090606460018060a01b035f51602061288d5f395f51905f525416935f604051958694859363d99882d560e01b8552600485015260248401528160448401525af1908115611e8e575f9161220e575090565b90506020813d602011612235575b8161222960209383611c5f565b8101031261019d575190565b3d915061221c565b5060206122495f61283e565b90506121bb565b905061225b5f61283e565b906121b4565b90611e8b918015612282575b816126a957905061227c6127a2565b906126a9565b5061228b6127a2565b61226d565b90611e8b9180156122b1575b816125f15790506122ab6127f0565b906125f1565b506122ba6127f0565b61229c565b90611e8b9180156122e0575b8161264d5790506122da6127f0565b9061264d565b506122e96127f0565b6122cb565b90611e8b918015612309575b816126a957905061227c612754565b50612312612754565b6122fa565b801561236a575b5f51602061288d5f395f51905f5254604051630f51ccfb60e41b81526004810192909252602090829060249082905f906001600160a01b03165af1908115611e8e575f9161220e575090565b505f60206123778261283e565b91505061231e565b9081156123f4575b80156123e1575b602090606460018060a01b035f51602061288d5f395f51905f525416935f60405195869485936363a2db2960e01b8552600485015260248401528160448401525af1908115611e8e575f9161220e575090565b5060206123ed5f61283e565b905061238e565b90506123ff5f61283e565b90612387565b801561245b575b5f51602061288d5f395f51905f52546040516307227b9160e21b815260048101929092526001600160a01b0316816044815f602094600260248401525af1908115611e8e575f9161220e575090565b506124655f61283e565b61240c565b4660010361247757600190565b4662aa36a7036124875761271190565b617a694614612494575f90565b5f1990565b5f5160206128ad5f395f51905f52546040516382027b6d60e01b815260048101929092526001600160a01b039283166024830152909160209183916044918391165afa908115611e8e575f916124ed575090565b90506020813d60201161251d575b8161250860209383611c5f565b8101031261019d5751801515810361019d5790565b3d91506124fb565b5f5160206128ad5f395f51905f52546001600160a01b031691823b1561019d57604051635ca4b5b160e11b815260048101929092526001600160a01b03166024820152905f908290604490829084905af18015611e8e576125835750565b5f611cb891611c5f565b80156125e3575b5f51602061288d5f395f51905f52546040516307227b9160e21b815260048101929092526001600160a01b0316816044815f602094600460248401525af1908115611e8e575f9161220e575090565b506125ec6127a2565b612594565b5f51602061288d5f395f51905f5254604051631391547f60e01b8152600481019290925260248201929092525f604482018190529091602091839160649183916001600160a01b03165af1908115611e8e575f9161220e575090565b5f51602061288d5f395f51905f5254604051631d44e90160e21b8152600481019290925260248201929092525f604482018190529091602091839160649183916001600160a01b03165af1908115611e8e575f9161220e575090565b5f51602061288d5f395f51905f525460405163f77f3f1d60e01b8152600481019290925260248201929092525f604482018190529091602091839160649183916001600160a01b03165af1908115611e8e575f9161220e575090565b5f51602061288d5f395f51905f5254604051639cd07acb60e01b815260016004820152906001600160a01b0316816044815f602094600260248401525af1908115611e8e575f9161220e575090565b5f51602061288d5f395f51905f5254604051639cd07acb60e01b81525f6004820152906001600160a01b0316816044815f602094600460248401525af1908115611e8e575f9161220e575090565b5f51602061288d5f395f51905f5254604051639cd07acb60e01b81525f6004820152906001600160a01b0316816044815f602094600260248401525af1908115611e8e575f9161220e575090565b5f51602061288d5f395f51905f5254604051639cd07acb60e01b81525f6004820152906001600160a01b0316816044815f602094600660248401525af1908115611e8e575f9161220e575090565b5f51602061288d5f395f51905f5254604051639cd07acb60e01b815260048101929092526001600160a01b0316816044815f6020948160248401525af1908115611e8e575f9161220e57509056fe9e7b61f58c47dc699ac88507c4f5bb9f121c03808c5676a8078fe583e46497019e7b61f58c47dc699ac88507c4f5bb9f121c03808c5676a8078fe583e4649700a164736f6c634300081b000a",
  "linkReferences": {},
  "deployedLinkReferences": {}
}