{
  "_format": "hh-sol-artifact-1",
  "contractName": "AegisCare",
  "sourceName": "contracts/AegisCare.sol",
  "abi": [
    {
      "inputs": [],
      "stateMutability": "nonpayable",
      "type": "constructor"
    },
    {
      "inputs": [],
      "name": "ContractPaused",
      "type": "error"
    },
    {
      "inputs": [],
      "name": "InvalidEncryptedInput",
      "type": "error"
    },
    {
      "inputs": [],
      "name": "MaxTrialsReached",
      "type": "error"
    },
    {
      "inputs": [],
      "name": "NotAuthorized",
      "type": "error"
    },
    {
      "inputs": [],
      "name": "PatientNotFound",
      "type": "error"
    },
    {
      "inputs": [
        {
          "internalType": "bytes32",
          "name": "handle",
          "type": "bytes32"
        },
        {
          "internalType": "address",
          "name": "sender",
          "type": "address"
        }
      ],
      "name": "SenderNotAllowedToUseHandle",
      "type": "error"
    },
    {
      "inputs": [],
      "name": "TrialNotFound",
      "type": "error"
    },
    {
      "inputs": [],
      "name": "UnauthorizedAccess",
      "type": "error"
    },
    {
      "inputs": [],
      "name": "ZamaProtocolUnsupported",
      "type": "error"
    },
    {
      "anonymous": false,
      "inputs": [
        {
          "indexed": true,
          "internalType": "uint256",
          "name": "resultId",
          "type": "uint256"
        },
        {
          "indexed": true,
          "internalType": "uint256",
          "name": "trialId",
          "type": "uint256"
        },
        {
          "indexed": true,
          "internalType": "uint256",
          "name": "patientId",
          "type": "uint256"
        },
        {
          "indexed": false,
          "internalType": "uint256",
          "name": "computedAt",
          "type": "uint256"
        }
      ],
      "name": "EligibilityComputed",
      "type": "event"
    },
    {
      "anonymous": false,
      "inputs": [
        {
          "indexed": true,
          "internalType": "uint256",
          "name": "patientId",
          "type": "uint256"
        },
        {
          "indexed": true,
          "internalType": "address",
          "name": "patientAddress",
          "type": "address"
        },
        {
          "indexed": false,
          "internalType": "bytes32",
          "name": "publicKeyHash",
          "type": "bytes32"
        },
        {
          "indexed": false,
          "internalType": "uint256",
          "name": "registeredAt",
          "type": "uint256"
        }
      ],
      "name": "PatientRegistered",
      "type": "event"
    },
    {
      "anonymous": false,
      "inputs": [
        {
          "indexed": true,
          "internalType": "uint256",
          "name": "trialId",
          "type": "uint256"
        },
        {
          "indexed": false,
          "internalType": "string",
          "name": "trialName",
          "type": "string"
        },
        {
          "indexed": true,
          "internalType": "address",
          "name": "sponsor",
          "type": "address"
        },
        {
          "indexed": false,
          "internalType": "uint256",
          "name": "createdAt",
          "type": "uint256"
        }
      ],
      "name": "TrialRegistered",
      "type": "event"
    },
    {
      "inputs": [
        {
          "internalType": "uint256",
          "name": "_trialId",
          "type": "uint256"
        }
      ],
      "name": "checkEligibility",
      "outputs": [],
      "stateMutability": "nonpayable",
      "type": "function"
    },
    {
      "inputs": [
        {
          "internalType": "uint256",
          "name": "_trialId",
          "type": "uint256"
        },
        {
          "internalType": "address",
          "name": "_patientAddress",
          "type": "address"
        }
      ],
      "name": "computeEligibility",
      "outputs": [],
      "stateMutability": "nonpayable",
      "type": "function"
    },
    {
      "inputs": [],
      "name": "confidentialProtocolId",
      "outputs": [
        {
          "internalType": "uint256",
          "name": "",
          "type": "uint256"
        }
      ],
      "stateMutability": "view",
      "type": "function"
    },
    {
      "inputs": [
        {
          "internalType": "uint256",
          "name": "_trialId",
          "type": "uint256"
        }
      ],
      "name": "deactivateTrial",
      "outputs": [],
      "stateMutability": "nonpayable",
      "type": "function"
    },
    {
      "inputs": [
        {
          "internalType": "uint256",
          "name": "",
          "type": "uint256"
        },
        {
          "internalType": "uint256",
          "name": "",
          "type": "uint256"
        }
      ],
      "name": "eligibilityResults",
      "outputs": [
        {
          "internalType": "uint256",
          "name": "resultId",
          "type": "uint256"
        },
        {
          "internalType": "uint256",
          "name": "trialId",
          "type": "uint256"
        },
        {
          "internalType": "uint256",
          "name": "patientId",
          "type": "uint256"
        },
        {
          "internalType": "ebool",
          "name": "isEligible",
          "type": "bytes32"
        },
        {
          "internalType": "bool",
          "name": "decryptable",
          "type": "bool"
        },
        {
          "internalType": "bool",
          "name": "computed",
          "type": "bool"
        },
        {
          "internalType": "uint256",
          "name": "computedAt",
          "type": "uint256"
        }
      ],
      "stateMutability": "view",
      "type": "function"
    },
    {
      "inputs": [
        {
          "internalType": "uint256",
          "name": "_trialId",
          "type": "uint256"
        },
        {
          "internalType": "address",
          "name": "_patientAddress",
          "type": "address"
        }
      ],
      "name": "getEligibilityResult",
      "outputs": [
        {
          "internalType": "ebool",
          "name": "",
          "type": "bytes32"
        }
      ],
      "stateMutability": "view",
      "type": "function"
    },
    {
      "inputs": [
        {
          "internalType": "address",
          "name": "_patientAddress",
          "type": "address"
        }
      ],
      "name": "getPatientInfo",
      "outputs": [
        {
          "internalType": "uint256",
          "name": "patientId",
          "type": "uint256"
        },
        {
          "internalType": "bytes32",
          "name": "publicKeyHash",
          "type": "bytes32"
        },
        {
          "internalType": "uint256",
          "name": "registeredAt",
          "type": "uint256"
        }
      ],
      "stateMutability": "view",
      "type": "function"
    },
    {
      "inputs": [
        {
          "internalType": "address",
          "name": "_sponsor",
          "type": "address"
        }
      ],
      "name": "getSponsorTrialCount",
      "outputs": [
        {
          "internalType": "uint256",
          "name": "",
          "type": "uint256"
        }
      ],
      "stateMutability": "view",
      "type": "function"
    },
    {
      "inputs": [
        {
          "internalType": "uint256",
          "name": "_trialId",
          "type": "uint256"
        }
      ],
      "name": "getTrialInfo",
      "outputs": [
        {
          "internalType": "uint256",
          "name": "trialId",
          "type": "uint256"
        },
        {
          "internalType": "string",
          "name": "trialName",
          "type": "string"
        },
        {
          "internalType": "string",
          "name": "description",
          "type": "string"
        },
        {
          "internalType": "address",
          "name": "sponsor",
          "type": "address"
        },
        {
          "internalType": "bool",
          "name": "isActive",
          "type": "bool"
        },
        {
          "internalType": "uint256",
          "name": "createdAt",
          "type": "uint256"
        },
        {
          "internalType": "uint256",
          "name": "participantCount",
          "type": "uint256"
        }
      ],
      "stateMutability": "view",
      "type": "function"
    },
    {
      "inputs": [
        {
          "internalType": "uint256",
          "name": "_trialId",
          "type": "uint256"
        }
      ],
      "name": "getTrialPublicInfo",
      "outputs": [
        {
          "internalType": "string",
          "name": "trialName",
          "type": "string"
        },
        {
          "internalType": "string",
          "name": "description",
          "type": "string"
        },
        {
          "internalType": "address",
          "name": "sponsor",
          "type": "address"
        },
        {
          "internalType": "bool",
          "name": "isActive",
          "type": "bool"
        }
      ],
      "stateMutability": "view",
      "type": "function"
    },
    {
      "inputs": [
        {
          "internalType": "address",
          "name": "_patientAddress",
          "type": "address"
        }
      ],
      "name": "isPatientRegistered",
      "outputs": [
        {
          "internalType": "bool",
          "name": "",
          "type": "bool"
        }
      ],
      "stateMutability": "view",
      "type": "function"
    },
    {
      "inputs": [],
      "name": "owner",
      "outputs": [
        {
          "internalType": "address",
          "name": "",
          "type": "address"
        }
      ],
      "stateMutability": "view",
      "type": "function"
    },
    {
      "inputs": [],
      "name": "patientCount",
      "outputs": [
        {
          "internalType": "uint256",
          "name": "",
          "type": "uint256"
        }
      ],
      "stateMutability": "view",
      "type": "function"
    },
    {
      "inputs": [
        {
          "internalType": "address",
          "name": "",
          "type": "address"
        },
        {
          "internalType": "uint256",
          "name": "",
          "type": "uint256"
        }
      ],
      "name": "patientEligibilityChecks",
      "outputs": [
        {
          "internalType": "uint256",
          "name": "",
          "type": "uint256"
        }
      ],
      "stateMutability": "view",
      "type": "function"
    },
    {
      "inputs": [
        {
          "internalType": "address",
          "name": "",
          "type": "address"
        }
      ],
      "name": "patients",
      "outputs": [
        {
          "internalType": "uint256",
          "name": "patientId",
          "type": "uint256"
        },
        {
          "internalType": "euint8",
          "name": "age",
          "type": "bytes32"
        },
        {
          "internalType": "euint8",
          "name": "gender",
          "type": "bytes32"
        },
        {
          "internalType": "euint128",
          "name": "bmiScore",
          "type": "bytes32"
        },
        {
          "internalType": "euint8",
          "name": "hasMedicalCondition",
          "type": "bytes32"
        },
        {
          "internalType": "euint32",
          "name": "conditionCode",
          "type": "bytes32"
        },
        {
          "internalType": "bytes32",
          "name": "publicKeyHash",
          "type": "bytes32"
        },
        {
          "internalType": "uint256",
          "name": "registeredAt",
          "type": "uint256"
        }
      ],
      "stateMutability": "view",
      "type": "function"
    },
    {
      "inputs": [],
      "name": "pause",
      "outputs": [],
      "stateMutability": "nonpayable",
      "type": "function"
    },
    {
      "inputs": [],
      "name": "paused",
      "outputs": [
        {
          "internalType": "bool",
          "name": "",
          "type": "bool"
        }
      ],
      "stateMutability": "view",
      "type": "function"
    },
    {
      "inputs": [
        {
          "internalType": "externalEuint8",
          "name": "age",
          "type": "bytes32"
        },
        {
          "internalType": "externalEuint8",
          "name": "gender",
          "type": "bytes32"
        },
        {
          "internalType": "externalEuint128",
          "name": "bmiScore",
          "type": "bytes32"
        },
        {
          "internalType": "externalEuint8",
          "name": "hasMedicalCondition",
          "type": "bytes32"
        },
        {
          "internalType": "externalEuint32",
          "name": "conditionCode",
          "type": "bytes32"
        },
        {
          "internalType": "bytes",
          "name": "attestation",
          "type": "bytes"
        },
        {
          "internalType": "bytes32",
          "name": "publicKeyHash",
          "type": "bytes32"
        }
      ],
      "name": "registerPatient",
      "outputs": [],
      "stateMutability": "nonpayable",
      "type": "function"
    },
    {
      "inputs": [
        {
          "internalType": "string",
          "name": "_trialName",
          "type": "string"
        },
        {
          "internalType": "string",
          "name": "_description",
          "type": "string"
        },
        {
          "internalType": "externalEuint32",
          "name": "_minAge",
          "type": "bytes32"
        },
        {
          "internalType": "externalEuint32",
          "name": "_maxAge",
          "type": "bytes32"
        },
        {
          "internalType": "externalEuint8",
          "name": "_requiredGender",
          "type": "bytes32"
        },
        {
          "internalType": "externalEuint128",
          "name": "_minBMIScore",
          "type": "bytes32"
        },
        {
          "internalType": "externalEuint128",
          "name": "_maxBMIScore",
          "type": "bytes32"
        },
        {
          "internalType": "externalEuint8",
          "name": "_hasSpecificCondition",
          "type": "bytes32"
        },
        {
          "internalType": "externalEuint32",
          "name": "_conditionCode",
          "type": "bytes32"
        },
        {
          "internalType": "bytes",
          "name": "_attestation",
          "type": "bytes"
        }
      ],
      "name": "registerTrial",
      "outputs": [
        {
          "internalType": "uint256",
          "name": "",
          "type": "uint256"
        }
      ],
      "stateMutability": "nonpayable",
      "type": "function"
    },
    {
      "inputs": [
        {
          "internalType": "address",
          "name": "",
          "type": "address"
        },
        {
          "internalType": "uint256",
          "name": "",
          "type": "uint256"
        }
      ],
      "name": "sponsorTrials",
      "outputs": [
        {
          "internalType": "uint256",
          "name": "",
          "type": "uint256"
        }
      ],
      "stateMutability": "view",
      "type": "function"
    },
    {
      "inputs": [
        {
          "internalType": "address",
          "name": "_newOwner",
          "type": "address"
        }
      ],
      "name": "transferOwnership",
      "outputs": [],
      "stateMutability": "nonpayable",
      "type": "function"
    },
    {
      "inputs": [],
      "name": "trialCount",
      "outputs": [
        {
          "internalType": "uint256",
          "name": "",
          "type": "uint256"
        }
      ],
      "stateMutability": "view",
      "type": "function"
    },
    {
      "inputs": [
        {
          "internalType": "uint256",
          "name": "",
          "type": "uint256"
        }
      ],
      "name": "trials",
      "outputs": [
        {
          "internalType": "uint256",
          "name": "trialId",
          "type": "uint256"
        },
        {
          "internalType": "string",
          "name": "trialName",
          "type": "string"
        },
        {
          "internalType": "string",
          "name": "description",
          "type": "string"
        },
        {
          "internalType": "euint32",
          "name": "minAge",
          "type": "bytes32"
        },
        {
          "internalType": "euint32",
          "name": "maxAge",
          "type": "bytes32"
        },
        {
          "internalType": "euint8",
          "name": "requiredGender",
          "type": "bytes32"
        },
        {
          "internalType": "euint128",
          "name": "minBMIScore",
          "type": "bytes32"
        },
        {
          "internalType": "euint128",
          "name": "maxBMIScore",
          "type": "bytes32"
        },
        {
          "internalType": "euint8",
          "name": "hasSpecificCondition",
          "type": "bytes32"
        },
        {
          "internalType": "euint32",
          "name": "conditionCode",
          "type": "bytes32"
        },
        {
          "internalType": "address",
          "name": "sponsor",
          "type": "address"
        },
        {
          "internalType": "bool",
          "name": "isActive",
          "type": "bool"
        },
        {
          "internalType": "uint256",
          "name": "createdAt",
          "type": "uint256"
        },
        {
          "internalType": "uint256",
          "name": "participantCount",
          "type": "uint256"
        }
      ],
      "stateMutability": "view",
      "type": "function"
    },
    {
      "inputs": [],
      "name": "unpause",
      "outputs": [],
      "stateMutability": "nonpayable",
      "type": "function"
    }
  ],
  "bytecode": "0x6080604052346102355761001161026c565b50466001036101515761002261026c565b5061002b610239565b73ca2e8f1f656cd25c01f05d0b243ab1ecd4a8ffb6815273d82385dada1ae3e969447f20a3164f6213100e7560208201527377627828a55156b04ac0dc0eb30467f1a552bb0360408201525b80517f9e7b61f58c47dc699ac88507c4f5bb9f121c03808c5676a8078fe583e464970080546001600160a01b03199081166001600160a01b039384161790915560208301517f9e7b61f58c47dc699ac88507c4f5bb9f121c03808c5676a8078fe583e4649701805483169184169190911790556040928301517f9e7b61f58c47dc699ac88507c4f5bb9f121c03808c5676a8078fe583e464970280549092169216919091179055600780546001600160a81b0319163360081b610100600160a81b03161790555f80805560015551611aa590816102878239f35b4662aa36a7036101bc5761016361026c565b5061016c610239565b73f0ffdc93b7e186bc2f8cb3daa75d86d1930a433d81527392c920834ec8941d2c77d188936e1f7a6f49c127602082015273be0e383937d564d7ff0bc3b46c51f0bf8d5c311a6040820152610077565b46617a6903610226576101cd61026c565b506101d6610239565b7350157cffd6bbfa2dece204a89ec419c23ef5755d815273e3a9105a3a932253a70f126eb1e3b589c643dd24602082015273901f8942346f7ab3a01f6d7613119bca447bb0306040820152610077565b6373cac13b60e01b5f5260045ffd5b5f80fd5b60405190606082016001600160401b0381118382101761025857604052565b634e487b7160e01b5f52604160045260245ffd5b610274610239565b905f82525f60208301525f604083015256fe6080806040526004361015610012575f80fd5b5f3560e01c908163010b5c1f146111d1575080630869cfbc1461114c5780630df93389146111035780630e89a55314610ef75780630fafb02e14610e9c5780631cc4d75214610e645780631de5686a14610e48578063202229d214610dc15780633f4ba83a14610d915780634b42617814610d425780634fd3ddda14610cea5780635c975abb14610cc857806368474f71146107565780637b39fed61461061957806380b6b1b8146105df5780638456cb59146105ac5780638927b0301461058a5780638da5cb5b1461055e57806395a8bd15146104be578063a0303c41146104a1578063cbd7b775146102e2578063cf36002d146101eb578063dd1f54161461018b5763f2fde38b14610124575f80fd5b346101875760203660031901126101875761013d61124c565b60075490600882901c6001600160a01b0316330361017857610100600160a81b031990911660089190911b610100600160a81b031617600755005b631a27eac360e11b5f5260045ffd5b5f80fd5b34610187576020366003190112610187576004355f818152600260205260409020600a01546001600160a01b031633036101dc575f908152600260205260409020600a01805460ff60a01b19169055005b63ea8e4eb560e01b5f5260045ffd5b34610187576020366003190112610187576004355f52600260205260405f2080546001820161021990611366565b9161022660028201611366565b6003820154916004810154600582015460068301546007840154600885015491600986015493600a87015495600b88015497600c0154986040519c8d9c8d5260208d016101c090526101c08d0161027c916112ce565b8c810360408e015261028d916112ce565b9960608c015260808b015260a08a015260c089015260e0880152610100870152610120860152600160a01b60019003811661014086015260a01c60ff1615156101608501526101808401526101a08301520390f35b34610187576040366003190112610187576004356102fe611262565b60ff60075416610492576001600160a01b03165f81815260036020526040902080549192911561048357815f52600260205260405f2080541561047457600c016103488154611406565b905561035460016119db565b92620f4240830293838504620f4240148415171561046057600561037a8454809761148d565b95604051926103888461132a565b8784526020840187815260408501918383526060860190815260808601926001845260a08701926001845260c08801954287528b5f52600460205260405f20905f5260205260405f20975188555160018801555160028701555160038601556104046004860192511515839060ff801983541691151516179055565b51151561ff0082549160081b169061ff001916179055519101555f5260056020526104328360405f20611459565b54917f2c159a4d5e68373a796ad24f9288e9a21240a127ba632ceba5e32cad0f6881206020604051428152a4005b634e487b7160e01b5f52601160045260245ffd5b630db925cb60e01b5f5260045ffd5b63595b36fd60e01b5f5260045ffd5b63ab35696f60e01b5f5260045ffd5b34610187575f366003190112610187576020600154604051908152f35b34610187576020366003190112610187576004355f52600260205260405f208054600a820154600b830154600c8401549060ff61053661050c600261050560018a01611366565b9801611366565b610528604051988998895260e060208a015260e08901906112ce565b9087820360408901526112ce565b9360018060a01b038116606087015260a01c161515608085015260a084015260c08301520390f35b34610187575f3660031901126101875760075460405160089190911c6001600160a01b03168152602090f35b34610187575f3660031901126101875760206105a46118b8565b604051908152f35b34610187575f36600319011261018757600754600881901c6001600160a01b031633036101785760ff1916600117600755005b34610187576020366003190112610187576001600160a01b0361060061124c565b165f526003602052602060405f20541515604051908152f35b346101875760203660031901126101875760043560ff6007541661049257335f52600360205260405f209081541561048357805f52600260205260405f2080541561047457600c0161066b8154611406565b905561067760016119db565b91620f4240820292828404620f4240148315171561046057600561069d8354809661148d565b94604051926106ab8461132a565b8684526020840186815260408501918383526060860190815260808601926001845260a08701926001845260c08801954287528a5f52600460205260405f20905f5260205260405f20975188555160018801555160028701555160038601556107276004860192511515839060ff801983541691151516179055565b51151561ff0082549160081b169061ff00191617905551910155335f5260056020526104328360405f20611459565b3461018757610140366003190112610187576004356001600160401b038111610187576107879036906004016112a1565b6024356001600160401b038111610187576107a69036906004016112a1565b919092610124356001600160401b038111610187576107c99036906004016112a1565b93909460ff6007541661049257335f52600660205260405f2094603286541015610cb9576107f75f54611406565b5f5561080f61080736838a611414565b604435611698565b9661082661081e368484611414565b606435611698565b9161083d610835368385611414565b60843561149a565b9161085461084c368484611414565b60a4356115da565b61089861088f610870610868368787611414565b60c4356115da565b9361088761087f368884611414565b60e43561149a565b953691611414565b61010435611698565b935f54956040519c8d986101c08a01998a106001600160401b038b1117610bdd576108e48f9a916108d58f8f908d8f606097604052523691611414565b9c60208d019d8e523691611414565b99604081019a8b52015260808d015260a08c015260c08b015260e08a0152610100890152610120880152336101408801526001610160880152426101808801525f6101a08801525f52600260205260405f209186518355518051906001600160401b038211610bdd57819061095c60018601546112f2565b601f8111610c69575b50602090601f8311600114610bfc575f92610bf1575b50508160011b915f199060031b1c19161760018301555b519485516001600160401b038111610bdd576109b160028401546112f2565b96601f8811610b99575b602097508790601f8311600114610b03577fd7f73c54d6ce2e345bf6c2f008a3418ea55e0f8a22b16162b0081c08081bda76979383610ab89694600c946101a0945f92610af8575b50508160011b915f199060031b1c19161760028501555b606081015160038501556080810151600485015560a080820151600586015560c0820151600686015560e0820151600786015561010082015160088601556101208201516009860155610140820151600a860180546101608501516001600160a81b03199091166001600160a01b03939093169290921791151590921b60ff60a01b16179055610180810151600b85015501519101555f5490611459565b5f5492839183604051916040835281604084015260608301375f6060858301015242868201526060813395601f80199101168101030190a3604051908152f35b015190508c80610a03565b90600285015f52805f20915f5b601f1985168110610b82575093600184600c946101a0947fd7f73c54d6ce2e345bf6c2f008a3418ea55e0f8a22b16162b0081c08081bda769c98610ab89a98601f19811610610b6a575b505050811b016002850155610a1a565b01515f1960f88460031b161c191690558c8080610b5a565b91928a600181928685015181550194019201610b10565b600284015f5260205f20601f830160051c810160208410610bd6575b601f8a0160051c82018110610bcb5750506109bb565b5f8155600101610bb5565b5080610bb5565b634e487b7160e01b5f52604160045260245ffd5b01519050888061097b565b9250600185015f52805f20905f935b601f1984168510610c4e576001945083601f19811610610c36575b505050811b016001830155610992565b01515f1960f88460031b161c19169055888080610c26565b81810151835560209485019460019093019290910190610c0b565b909150600185015f5260205f20601f840160051c810160208510610cb2575b90849392915b601f830160051c82018110610ca4575050610965565b5f8155859450600101610c8e565b5080610c88565b632457379b60e11b5f5260045ffd5b34610187575f36600319011261018757602060ff600754166040519015158152f35b3461018757604036600319011261018757610d0361124c565b6001600160a01b03165f9081526006602052604090208054602435919082101561018757602091610d3391611278565b90549060031b1c604051908152f35b34610187576020366003190112610187576001600160a01b03610d6361124c565b165f526003602052606060405f20805490600760068201549101549060405192835260208301526040820152f35b34610187575f36600319011261018757600754600881901c6001600160a01b031633036101785760ff1916600755005b34610187576020366003190112610187576004355f526002602052610e1960405f20600a81015460ff610e27610e056002610dfe60018701611366565b9501611366565b6040519586956080875260808701906112ce565b9085820360208701526112ce565b6001600160a01b038316604085015260a09290921c16151560608301520390f35b34610187575f3660031901126101875760205f54604051908152f35b34610187576020366003190112610187576001600160a01b03610e8561124c565b165f526006602052602060405f2054604051908152f35b34610187576040366003190112610187576001600160a01b03610ebd611262565b168033036101dc576004355f52600460205260405f20905f52600360205260405f20545f526020526020600360405f200154604051908152f35b346101875760e03660031901126101875760a4356001600160401b03811161018757610f279036906004016112a1565b9060c4359160ff6007541661049257335f52600360205260405f20546110f457610f52600154611406565b600155610f6b610f63368385611414565b60043561149a565b610f81610f79368486611414565b60243561149a565b610fbc610fb4610f9d610f95368789611414565b6044356115da565b95610887610fac368884611414565b60643561149a565b608435611698565b610fc63084611756565b50610fd13083611756565b50610fdc30866117f0565b50610fe73085611756565b50610ff23082611854565b50610ffd3384611756565b506110083383611756565b5061101333866117f0565b5061101e3385611756565b506110293382611854565b5060015493604051956101008701958787106001600160401b03881117610bdd5760079660405287526020870194855260408701938452606087019081526080870191825260a0870192835260c087019388855260e0880195428752335f52600360205260405f2098518955516001890155516002880155516003870155516004860155516005850155516006840155519101556001546040519182524260208301527f47336259ce8e91157b9813c07e1e9699e56667ed1e16d277ace641f30455a04760403393a3005b634fe47f7760e01b5f5260045ffd5b346101875760403660031901126101875761111c61124c565b6001600160a01b03165f9081526005602052604090208054602435919082101561018757602091610d3391611278565b34610187576020366003190112610187576001600160a01b0361116d61124c565b165f52600360205261010060405f20805490600181015490600281015460038201546004830154906005840154926007600686015495015495604051978852602088015260408701526060860152608085015260a084015260c083015260e0820152f35b346101875760403660031901126101875760e0906004355f52600460205260405f206024355f5260205260405f2060ff81549160018101546002820154600383015491600560048501549401549587526020870152604086015260608501528181161515608085015260081c16151560a083015260c0820152f35b600435906001600160a01b038216820361018757565b602435906001600160a01b038216820361018757565b805482101561128d575f5260205f2001905f90565b634e487b7160e01b5f52603260045260245ffd5b9181601f84011215610187578235916001600160401b038311610187576020838186019501011161018757565b805180835260209291819084018484015e5f828201840152601f01601f1916010190565b90600182811c92168015611320575b602083101461130c57565b634e487b7160e01b5f52602260045260245ffd5b91607f1691611301565b60e081019081106001600160401b03821117610bdd57604052565b90601f801991011681019081106001600160401b03821117610bdd57604052565b9060405191825f825492611379846112f2565b80845293600181169081156113e457506001146113a0575b5061139e92500383611345565b565b90505f9291925260205f20905f915b8183106113c857505090602061139e928201015f611391565b60209193508060019154838589010152019101909184926113af565b90506020925061139e94915060ff191682840152151560051b8201015f611391565b5f1981146104605760010190565b9291926001600160401b038211610bdd576040519161143d601f8201601f191660200184611345565b829481845281830111610187578281602093845f960137010152565b8054600160401b811015610bdd5761147691600182018155611278565b819291549060031b91821b915f19901b1916179055565b9190820180921161046057565b8151909190156115b1575f516020611a595f395f51905f525460405163045fc19560e11b81526004810193909352336024840152608060448401526001600160a01b0316906114ed9060848401906112ce565b602091835f8180946002606483015203925af1908115611574575f9161157f575b505f516020611a795f395f51905f52546001600160a01b0316803b1561018757604051630f8e573b60e21b815260048101839052336024820152905f908290818381604481015b03925af1801561157457611567575090565b5f61157191611345565b90565b6040513d5f823e3d90fd5b90506020813d6020116115a9575b8161159a60209383611345565b8101031261018757515f61150e565b3d915061158d565b506115bc33826118e7565b156115c45790565b630276b5d960e01b5f526004523360245260445ffd5b8151909190156115b1575f516020611a595f395f51905f525460405163045fc19560e11b81526004810193909352336024840152608060448401526001600160a01b03169061162d9060848401906112ce565b602091835f8180946006606483015203925af1908115611574575f9161157f57505f516020611a795f395f51905f52546001600160a01b0316803b1561018757604051630f8e573b60e21b815260048101839052336024820152905f90829081838160448101611555565b8151909190156115b1575f516020611a595f395f51905f525460405163045fc19560e11b81526004810193909352336024840152608060448401526001600160a01b0316906116eb9060848401906112ce565b602091835f8180946004606483015203925af1908115611574575f9161157f57505f516020611a795f395f51905f52546001600160a01b0316803b1561018757604051630f8e573b60e21b815260048101839052336024820152905f90829081838160448101611555565b908115611768575b6115719082611973565b5f516020611a595f395f51905f5254604051639cd07acb60e01b81525f60048201529192506001600160a01b0316816044815f602094600260248401525af18015611574575f906117bc575b91905061175e565b506020813d6020116117e8575b816117d660209383611345565b810103126101875761157190516117b4565b3d91506117c9565b908115611801576115719082611973565b5f516020611a595f395f51905f5254604051639cd07acb60e01b81525f60048201529192506001600160a01b0316816044815f602094600660248401525af18015611574575f906117bc5791905061175e565b908115611865576115719082611973565b5f516020611a595f395f51905f5254604051639cd07acb60e01b81525f60048201529192506001600160a01b0316816044815f602094600460248401525af18015611574575f906117bc5791905061175e565b466001036118c557600190565b4662aa36a7036118d55761271190565b617a6946146118e2575f90565b5f1990565b5f516020611a795f395f51905f52546040516382027b6d60e01b815260048101929092526001600160a01b039283166024830152909160209183916044918391165afa908115611574575f9161193b575090565b90506020813d60201161196b575b8161195660209383611345565b81010312610187575180151581036101875790565b3d9150611949565b5f516020611a795f395f51905f52546001600160a01b031691823b1561018757604051635ca4b5b160e11b815260048101929092526001600160a01b03166024820152905f908290604490829084905af18015611574576119d15750565b5f61139e91611345565b5f516020611a595f395f51905f5254604051639cd07acb60e01b815260048101929092526001600160a01b0316816044815f6020948160248401525af1908115611574575f91611a29575090565b90506020813d602011611a50575b81611a4460209383611345565b81010312610187575190565b3d9150611a3756fe9e7b61f58c47dc699ac88507c4f5bb9f121c03808c5676a8078fe583e46497019e7b61f58c47dc699ac88507c4f5bb9f121c03808c5676a8078fe583e4649700a164736f6c634300081b000a",
  "linkReferences": {},
  "deployedLinkReferences": {}
}