{
  "_format": "hh-sol-artifact-1",
  "contractName": "AegisCare",
  "sourceName": "contracts/AegisCare.sol",
  "abi": [
    {
      "inputs": [],
      "stateMutability": "nonpayable",
      "type": "constructor"
    },
    {
      "inputs": [],
      "name": "ContractPaused",
      "type": "error"
    },
    {
      "inputs": [],
      "name": "InvalidEncryptedInput",
      "type": "error"
    },
    {
      "inputs": [],
      "name": "MaxTrialsReached",
      "type": "error"
    },
    {
      "inputs": [],
      "name": "NotAuthorized",
      "type": "error"
    },
    {
      "inputs": [],
      "name": "PatientNotFound",
      "type": "error"
    },
    {
      "inputs": [
        {
          "internalType": "bytes32",
          "name": "handle",
          "type": "bytes32"
        },
        {
          "internalType": "address",
          "name": "sender",
          "type": "address"
        }
      ],
      "name": "SenderNotAllowedToUseHandle",
      "type": "error"
    },
    {
      "inputs": [],
      "name": "TrialNotFound",
      "type": "error"
    },
    {
      "inputs": [],
      "name": "UnauthorizedAccess",
      "type": "error"
    },
    {
      "anonymous": false,
      "inputs": [
        {
          "indexed": true,
          "internalType": "uint256",
          "name": "resultId",
          "type": "uint256"
        },
        {
          "indexed": true,
          "internalType": "uint256",
          "name": "trialId",
          "type": "uint256"
        },
        {
          "indexed": true,
          "internalType": "uint256",
          "name": "patientId",
          "type": "uint256"
        },
        {
          "indexed": false,
          "internalType": "uint256",
          "name": "computedAt",
          "type": "uint256"
        }
      ],
      "name": "EligibilityComputed",
      "type": "event"
    },
    {
      "anonymous": false,
      "inputs": [
        {
          "indexed": true,
          "internalType": "uint256",
          "name": "patientId",
          "type": "uint256"
        },
        {
          "indexed": true,
          "internalType": "address",
          "name": "patientAddress",
          "type": "address"
        },
        {
          "indexed": false,
          "internalType": "bytes32",
          "name": "publicKeyHash",
          "type": "bytes32"
        },
        {
          "indexed": false,
          "internalType": "uint256",
          "name": "registeredAt",
          "type": "uint256"
        }
      ],
      "name": "PatientRegistered",
      "type": "event"
    },
    {
      "anonymous": false,
      "inputs": [
        {
          "indexed": true,
          "internalType": "uint256",
          "name": "trialId",
          "type": "uint256"
        },
        {
          "indexed": false,
          "internalType": "string",
          "name": "trialName",
          "type": "string"
        },
        {
          "indexed": true,
          "internalType": "address",
          "name": "sponsor",
          "type": "address"
        },
        {
          "indexed": false,
          "internalType": "uint256",
          "name": "createdAt",
          "type": "uint256"
        }
      ],
      "name": "TrialRegistered",
      "type": "event"
    },
    {
      "inputs": [
        {
          "internalType": "uint256",
          "name": "_trialId",
          "type": "uint256"
        }
      ],
      "name": "checkEligibility",
      "outputs": [],
      "stateMutability": "nonpayable",
      "type": "function"
    },
    {
      "inputs": [
        {
          "internalType": "uint256",
          "name": "_trialId",
          "type": "uint256"
        }
      ],
      "name": "deactivateTrial",
      "outputs": [],
      "stateMutability": "nonpayable",
      "type": "function"
    },
    {
      "inputs": [
        {
          "internalType": "uint256",
          "name": "",
          "type": "uint256"
        },
        {
          "internalType": "uint256",
          "name": "",
          "type": "uint256"
        }
      ],
      "name": "eligibilityResults",
      "outputs": [
        {
          "internalType": "uint256",
          "name": "resultId",
          "type": "uint256"
        },
        {
          "internalType": "uint256",
          "name": "trialId",
          "type": "uint256"
        },
        {
          "internalType": "uint256",
          "name": "patientId",
          "type": "uint256"
        },
        {
          "internalType": "ebool",
          "name": "isEligible",
          "type": "bytes32"
        },
        {
          "internalType": "bool",
          "name": "decryptable",
          "type": "bool"
        },
        {
          "internalType": "bool",
          "name": "computed",
          "type": "bool"
        },
        {
          "internalType": "uint256",
          "name": "computedAt",
          "type": "uint256"
        }
      ],
      "stateMutability": "view",
      "type": "function"
    },
    {
      "inputs": [
        {
          "internalType": "address",
          "name": "_patientAddress",
          "type": "address"
        }
      ],
      "name": "getPatientInfo",
      "outputs": [
        {
          "internalType": "uint256",
          "name": "patientId",
          "type": "uint256"
        },
        {
          "internalType": "bytes32",
          "name": "publicKeyHash",
          "type": "bytes32"
        },
        {
          "internalType": "uint256",
          "name": "registeredAt",
          "type": "uint256"
        }
      ],
      "stateMutability": "view",
      "type": "function"
    },
    {
      "inputs": [
        {
          "internalType": "address",
          "name": "_sponsor",
          "type": "address"
        }
      ],
      "name": "getSponsorTrialCount",
      "outputs": [
        {
          "internalType": "uint256",
          "name": "",
          "type": "uint256"
        }
      ],
      "stateMutability": "view",
      "type": "function"
    },
    {
      "inputs": [
        {
          "internalType": "uint256",
          "name": "_trialId",
          "type": "uint256"
        }
      ],
      "name": "getTrialInfo",
      "outputs": [
        {
          "internalType": "uint256",
          "name": "trialId",
          "type": "uint256"
        },
        {
          "internalType": "string",
          "name": "trialName",
          "type": "string"
        },
        {
          "internalType": "string",
          "name": "description",
          "type": "string"
        },
        {
          "internalType": "address",
          "name": "sponsor",
          "type": "address"
        },
        {
          "internalType": "bool",
          "name": "isActive",
          "type": "bool"
        },
        {
          "internalType": "uint256",
          "name": "participantCount",
          "type": "uint256"
        },
        {
          "internalType": "uint256",
          "name": "createdAt",
          "type": "uint256"
        }
      ],
      "stateMutability": "view",
      "type": "function"
    },
    {
      "inputs": [
        {
          "internalType": "address",
          "name": "_patientAddress",
          "type": "address"
        }
      ],
      "name": "isPatientRegistered",
      "outputs": [
        {
          "internalType": "bool",
          "name": "",
          "type": "bool"
        }
      ],
      "stateMutability": "view",
      "type": "function"
    },
    {
      "inputs": [],
      "name": "owner",
      "outputs": [
        {
          "internalType": "address",
          "name": "",
          "type": "address"
        }
      ],
      "stateMutability": "view",
      "type": "function"
    },
    {
      "inputs": [],
      "name": "patientCount",
      "outputs": [
        {
          "internalType": "uint256",
          "name": "",
          "type": "uint256"
        }
      ],
      "stateMutability": "view",
      "type": "function"
    },
    {
      "inputs": [
        {
          "internalType": "address",
          "name": "",
          "type": "address"
        },
        {
          "internalType": "uint256",
          "name": "",
          "type": "uint256"
        }
      ],
      "name": "patientEligibilityChecks",
      "outputs": [
        {
          "internalType": "uint256",
          "name": "",
          "type": "uint256"
        }
      ],
      "stateMutability": "view",
      "type": "function"
    },
    {
      "inputs": [
        {
          "internalType": "address",
          "name": "",
          "type": "address"
        }
      ],
      "name": "patients",
      "outputs": [
        {
          "internalType": "uint256",
          "name": "patientId",
          "type": "uint256"
        },
        {
          "internalType": "euint256",
          "name": "age",
          "type": "bytes32"
        },
        {
          "internalType": "euint256",
          "name": "gender",
          "type": "bytes32"
        },
        {
          "internalType": "euint256",
          "name": "bmiScore",
          "type": "bytes32"
        },
        {
          "internalType": "euint256",
          "name": "hasMedicalCondition",
          "type": "bytes32"
        },
        {
          "internalType": "euint256",
          "name": "conditionCode",
          "type": "bytes32"
        },
        {
          "internalType": "bytes32",
          "name": "publicKeyHash",
          "type": "bytes32"
        },
        {
          "internalType": "uint256",
          "name": "registeredAt",
          "type": "uint256"
        }
      ],
      "stateMutability": "view",
      "type": "function"
    },
    {
      "inputs": [],
      "name": "pause",
      "outputs": [],
      "stateMutability": "nonpayable",
      "type": "function"
    },
    {
      "inputs": [],
      "name": "paused",
      "outputs": [
        {
          "internalType": "bool",
          "name": "",
          "type": "bool"
        }
      ],
      "stateMutability": "view",
      "type": "function"
    },
    {
      "inputs": [
        {
          "internalType": "externalEuint256",
          "name": "_age",
          "type": "bytes32"
        },
        {
          "internalType": "bytes",
          "name": "_ageProof",
          "type": "bytes"
        },
        {
          "internalType": "externalEuint256",
          "name": "_gender",
          "type": "bytes32"
        },
        {
          "internalType": "bytes",
          "name": "_genderProof",
          "type": "bytes"
        },
        {
          "internalType": "externalEuint256",
          "name": "_bmiScore",
          "type": "bytes32"
        },
        {
          "internalType": "bytes",
          "name": "_bmiProof",
          "type": "bytes"
        },
        {
          "internalType": "externalEuint256",
          "name": "_hasMedicalCondition",
          "type": "bytes32"
        },
        {
          "internalType": "bytes",
          "name": "_conditionProof",
          "type": "bytes"
        },
        {
          "internalType": "externalEuint256",
          "name": "_conditionCode",
          "type": "bytes32"
        },
        {
          "internalType": "bytes",
          "name": "_codeProof",
          "type": "bytes"
        },
        {
          "internalType": "bytes32",
          "name": "_publicKeyHash",
          "type": "bytes32"
        }
      ],
      "name": "registerPatient",
      "outputs": [],
      "stateMutability": "nonpayable",
      "type": "function"
    },
    {
      "inputs": [
        {
          "internalType": "string",
          "name": "_trialName",
          "type": "string"
        },
        {
          "internalType": "string",
          "name": "_description",
          "type": "string"
        },
        {
          "internalType": "externalEuint256",
          "name": "_minAge",
          "type": "bytes32"
        },
        {
          "internalType": "bytes",
          "name": "_minAgeProof",
          "type": "bytes"
        },
        {
          "internalType": "externalEuint256",
          "name": "_maxAge",
          "type": "bytes32"
        },
        {
          "internalType": "bytes",
          "name": "_maxAgeProof",
          "type": "bytes"
        },
        {
          "internalType": "externalEuint256",
          "name": "_requiredGender",
          "type": "bytes32"
        },
        {
          "internalType": "bytes",
          "name": "_genderProof",
          "type": "bytes"
        },
        {
          "internalType": "externalEuint256",
          "name": "_minBMIScore",
          "type": "bytes32"
        },
        {
          "internalType": "bytes",
          "name": "_minBMIProof",
          "type": "bytes"
        },
        {
          "internalType": "externalEuint256",
          "name": "_maxBMIScore",
          "type": "bytes32"
        },
        {
          "internalType": "bytes",
          "name": "_maxBMIProof",
          "type": "bytes"
        },
        {
          "internalType": "externalEuint256",
          "name": "_hasSpecificCondition",
          "type": "bytes32"
        },
        {
          "internalType": "bytes",
          "name": "_conditionProof",
          "type": "bytes"
        },
        {
          "internalType": "externalEuint256",
          "name": "_conditionCode",
          "type": "bytes32"
        },
        {
          "internalType": "bytes",
          "name": "_codeProof",
          "type": "bytes"
        }
      ],
      "name": "registerTrial",
      "outputs": [
        {
          "internalType": "uint256",
          "name": "",
          "type": "uint256"
        }
      ],
      "stateMutability": "nonpayable",
      "type": "function"
    },
    {
      "inputs": [
        {
          "internalType": "address",
          "name": "",
          "type": "address"
        },
        {
          "internalType": "uint256",
          "name": "",
          "type": "uint256"
        }
      ],
      "name": "sponsorTrials",
      "outputs": [
        {
          "internalType": "uint256",
          "name": "",
          "type": "uint256"
        }
      ],
      "stateMutability": "view",
      "type": "function"
    },
    {
      "inputs": [
        {
          "internalType": "address",
          "name": "_newOwner",
          "type": "address"
        }
      ],
      "name": "transferOwnership",
      "outputs": [],
      "stateMutability": "nonpayable",
      "type": "function"
    },
    {
      "inputs": [],
      "name": "trialCount",
      "outputs": [
        {
          "internalType": "uint256",
          "name": "",
          "type": "uint256"
        }
      ],
      "stateMutability": "view",
      "type": "function"
    },
    {
      "inputs": [
        {
          "internalType": "uint256",
          "name": "",
          "type": "uint256"
        }
      ],
      "name": "trials",
      "outputs": [
        {
          "internalType": "uint256",
          "name": "trialId",
          "type": "uint256"
        },
        {
          "internalType": "string",
          "name": "trialName",
          "type": "string"
        },
        {
          "internalType": "string",
          "name": "description",
          "type": "string"
        },
        {
          "internalType": "euint256",
          "name": "minAge",
          "type": "bytes32"
        },
        {
          "internalType": "euint256",
          "name": "maxAge",
          "type": "bytes32"
        },
        {
          "internalType": "euint256",
          "name": "requiredGender",
          "type": "bytes32"
        },
        {
          "internalType": "euint256",
          "name": "minBMIScore",
          "type": "bytes32"
        },
        {
          "internalType": "euint256",
          "name": "maxBMIScore",
          "type": "bytes32"
        },
        {
          "internalType": "euint256",
          "name": "hasSpecificCondition",
          "type": "bytes32"
        },
        {
          "internalType": "euint256",
          "name": "conditionCode",
          "type": "bytes32"
        },
        {
          "internalType": "address",
          "name": "sponsor",
          "type": "address"
        },
        {
          "internalType": "bool",
          "name": "isActive",
          "type": "bool"
        },
        {
          "internalType": "uint256",
          "name": "createdAt",
          "type": "uint256"
        },
        {
          "internalType": "uint256",
          "name": "participantCount",
          "type": "uint256"
        }
      ],
      "stateMutability": "view",
      "type": "function"
    },
    {
      "inputs": [],
      "name": "unpause",
      "outputs": [],
      "stateMutability": "nonpayable",
      "type": "function"
    }
  ],
  "bytecode": "0x60808060405234603b57600780546001600160a81b0319163360081b610100600160a81b03161790555f80805560015561156690816100408239f35b5f80fdfe610100806040526004361015610013575f80fd5b5f3560e01c908163010b5c1f146110e1575080630869cfbc1461105c5780630df93389146110135780631cc4d75214610fdb5780631de5686a14610fbf57806331e55c79146109935780633f4ba83a146109635780634b426178146109145780634fd3ddda146108bc5780635c975abb1461089a5780637b39fed61461065a57806380b6b1b8146106205780638456cb59146105ed5780638da5cb5b146105c157806395a8bd151461052157806397f9804c146102d4578063a0303c41146102b7578063cf36002d146101c0578063dd1f5416146101605763f2fde38b146100f9575f80fd5b3461015c57602036600319011261015c5761011261115c565b60075490600882901c6001600160a01b0316330361014d57610100600160a81b031990911660089190911b610100600160a81b031617600755005b631a27eac360e11b5f5260045ffd5b5f80fd5b3461015c57602036600319011261015c576004355f818152600260205260409020600a01546001600160a01b031633036101b1575f908152600260205260409020600a01805460ff60a01b19169055005b63ea8e4eb560e01b5f5260045ffd5b3461015c57602036600319011261015c576004355f52600260205260405f208054600182016101ee90611245565b916101fb60028201611245565b6003820154916004810154600582015460068301546007840154600885015491600986015493600a87015495600b88015497600c0154986040519c8d9c8d5260208d016101c090526101c08d01610251916111c8565b8c810360408e0152610262916111c8565b9960608c015260808b015260a08a015260c089015260e0880152610100870152610120860152600160a01b60019003811661014086015260a01c60ff1615156101608501526101808401526101a08301520390f35b3461015c575f36600319011261015c576020600154604051908152f35b3461015c5761016036600319011261015c576024356001600160401b03811161015c5761030590369060040161119b565b6064356001600160401b03811161015c5761032490369060040161119b565b60a4929192356001600160401b03811161015c5761034690369060040161119b565b909260e4356001600160401b03811161015c5761036790369060040161119b565b959096610124356001600160401b03811161015c5761038a90369060040161119b565b969091610144359960ff6007541661051257335f52600360205260405f2054610503576103fc610404610414946103fc6103f461041c996103ec6103e461040c996104259e6103da6001546112e5565b60015536916112f3565b60043561136c565b9d36916112f3565b60443561136c565b9936916112f3565b60843561136c565b60c43561136c565b9536916112f3565b6101043561136c565b60015493604051956101008701958787106001600160401b038811176104ef5760079660405287526020870194855260408701938452606087019081526080870191825260a0870192835260c087019388855260e0880195428752335f52600360205260405f2098518955516001890155516002880155516003870155516004860155516005850155516006840155519101556001546040519182524260208301527f47336259ce8e91157b9813c07e1e9699e56667ed1e16d277ace641f30455a04760403393a3005b634e487b7160e01b5f52604160045260245ffd5b634fe47f7760e01b5f5260045ffd5b63ab35696f60e01b5f5260045ffd5b3461015c57602036600319011261015c576004355f52600260205260405f208054600a820154600c830154600b8401549060ff61059961056f600261056860018a01611245565b9801611245565b61058b604051988998895260e060208a015260e08901906111c8565b9087820360408901526111c8565b9360018060a01b038116606087015260a01c161515608085015260a084015260c08301520390f35b3461015c575f36600319011261015c5760075460405160089190911c6001600160a01b03168152602090f35b3461015c575f36600319011261015c57600754600881901c6001600160a01b0316330361014d5760ff1916600117600755005b3461015c57602036600319011261015c576001600160a01b0361064161115c565b165f526003602052602060405f20541515604051908152f35b3461015c57602036600319011261015c5760043560ff6007541661051257335f52600360205260405f209081541561088b57805f52600260205260405f209182541561087c57600c5f93016106af81546112e5565b90557f9e7b61f58c47dc699ac88507c4f5bb9f121c03808c5676a8078fe583e464970154604051639cd07acb60e01b815260016004820152602481018590529360209185916044918391906001600160a01b03165af1928315610871575f9361083d575b50620f4240820292828404620f4240148315171561082957815490818501809511610829576040519160e08301918383106001600160401b038411176104ef576005926040528684526020840186815260408501918383526060860190815260808601926001845260a08701926001845260c08801954287528a5f52600460205260405f20905f5260205260405f2097518855516001880155516002870155516003860155600485019151151560ff8019845416911617825551151561ff0082549160081b169061ff00191617905551910155335f5260056020526107fb8360405f20611338565b54917f2c159a4d5e68373a796ad24f9288e9a21240a127ba632ceba5e32cad0f6881206020604051428152a4005b634e487b7160e01b5f52601160045260245ffd5b9092506020813d602011610869575b8161085960209383611224565b8101031261015c57519183610713565b3d915061084c565b6040513d5f823e3d90fd5b630db925cb60e01b5f5260045ffd5b63595b36fd60e01b5f5260045ffd5b3461015c575f36600319011261015c57602060ff600754166040519015158152f35b3461015c57604036600319011261015c576108d561115c565b6001600160a01b03165f9081526006602052604090208054602435919082101561015c5760209161090591611172565b90549060031b1c604051908152f35b3461015c57602036600319011261015c576001600160a01b0361093561115c565b165f526003602052606060405f20805490600760068201549101549060405192835260208301526040820152f35b3461015c575f36600319011261015c57600754600881901c6001600160a01b0316330361014d5760ff1916600755005b3461015c5761020036600319011261015c576004356001600160401b03811161015c576109c490369060040161119b565b60a0526024356001600160401b03811161015c576109e690369060040161119b565b6064929192356001600160401b03811161015c57610a0890369060040161119b565b60e05260a4356001600160401b03811161015c57610a2a90369060040161119b565b6080529060e4356001600160401b03811161015c57610a4d90369060040161119b565b9190610124356001600160401b03811161015c57610a6f90369060040161119b565b92610164356001600160401b03811161015c57610a9090369060040161119b565b9190926101a4356001600160401b03811161015c57610ab390369060040161119b565b9490916101e4356001600160401b03811161015c57610ad690369060040161119b565b97909460ff6007541661051257335f52600660205260405f2060c052603260c051541015610fb0575f54610b09906112e5565b5f553660e051610b18926112f3565b610b249060443561136c565b9a36608051610b32926112f3565b610b3e9060843561136c565b993690610b4a926112f3565b610b569060c43561136c565b973690610b62926112f3565b610b6f906101043561136c565b933690610b7b926112f3565b610b88906101443561136c565b933690610b94926112f3565b610ba1906101843561136c565b933690610bad926112f3565b610bba906101c43561136c565b935f54956040519a6101c08c01908c82106001600160401b038311176104ef578c9a6020610bf78e8c8f610c039760405252369060a051906112f3565b9c019b8c5236916112f3565b9760408c0198895260608c015260808b015260a08a015260c089015260e0880152610100870152610120860152336101408601526001610160860152426101808601525f6101a08601525f52600260205260405f209184518355518051906001600160401b0382116104ef578190610c7e60018601546111ec565b601f8111610f60575b50602090601f8311600114610ef3575f92610ee8575b50508160011b915f199060031b1c19161760018301555b519283516001600160401b0381116104ef57610cd360028401546111ec565b94601f8611610ea4575b602095508590601f8311600114610e34579180600c94926101a0945f92610e29575b50508160011b915f199060031b1c19161760028501555b606081015160038501556080810151600485015560a080820151600586015560c080830151600687015560e0830151600787015561010083015160088701556101208301516009870155610140830151600a870180546101608601516001600160a81b03199091166001600160a01b03939093169290921791151590931b60ff60a01b1617909155610180820151600b86015591015191909201555f549051610dbf9190611338565b5f5490604051906040825260a051604083015260a0519060608301375f606060a051830101524283820152817fd7f73c54d6ce2e345bf6c2f008a3418ea55e0f8a22b16162b0081c08081bda763392606081601f19601f60a05101168101030190a3604051908152f35b015190508880610cff565b90600285015f52805f20915f5b601f1985168110610e8d575092600c94926001926101a09583601f19811610610e75575b505050811b016002850155610d16565b01515f1960f88460031b161c19169055888080610e65565b919288600181928685015181550194019201610e41565b600284015f5260205f20601f830160051c810160208410610ee1575b601f880160051c82018110610ed6575050610cdd565b5f8155600101610ec0565b5080610ec0565b015190508680610c9d565b9250600185015f52805f20905f935b601f1984168510610f45576001945083601f19811610610f2d575b505050811b016001830155610cb4565b01515f1960f88460031b161c19169055868080610f1d565b81810151835560209485019460019093019290910190610f02565b909150600185015f5260205f20601f840160051c810160208510610fa9575b90849392915b601f830160051c82018110610f9b575050610c87565b5f8155859450600101610f85565b5080610f7f565b632457379b60e11b5f5260045ffd5b3461015c575f36600319011261015c5760205f54604051908152f35b3461015c57602036600319011261015c576001600160a01b03610ffc61115c565b165f526006602052602060405f2054604051908152f35b3461015c57604036600319011261015c5761102c61115c565b6001600160a01b03165f9081526005602052604090208054602435919082101561015c5760209161090591611172565b3461015c57602036600319011261015c576001600160a01b0361107d61115c565b165f52600360205261010060405f20805490600181015490600281015460038201546004830154906005840154926007600686015495015495604051978852602088015260408701526060860152608085015260a084015260c083015260e0820152f35b3461015c57604036600319011261015c5760e0906004355f52600460205260405f206024355f5260205260405f2060ff81549160018101546002820154600383015491600560048501549401549587526020870152604086015260608501528181161515608085015260081c16151560a083015260c0820152f35b600435906001600160a01b038216820361015c57565b8054821015611187575f5260205f2001905f90565b634e487b7160e01b5f52603260045260245ffd5b9181601f8401121561015c578235916001600160401b03831161015c576020838186019501011161015c57565b805180835260209291819084018484015e5f828201840152601f01601f1916010190565b90600182811c9216801561121a575b602083101461120657565b634e487b7160e01b5f52602260045260245ffd5b91607f16916111fb565b90601f801991011681019081106001600160401b038211176104ef57604052565b9060405191825f825492611258846111ec565b80845293600181169081156112c3575060011461127f575b5061127d92500383611224565b565b90505f9291925260205f20905f915b8183106112a757505090602061127d928201015f611270565b602091935080600191548385890101520191019091849261128e565b90506020925061127d94915060ff191682840152151560051b8201015f611270565b5f1981146108295760010190565b9291926001600160401b0382116104ef576040519161131c601f8201601f191660200184611224565b82948184528183011161015c578281602093845f960137010152565b8054600160401b8110156104ef5761135591600182018155611172565b819291549060031b91821b915f19901b1916179055565b81519091901561149e577f9e7b61f58c47dc699ac88507c4f5bb9f121c03808c5676a8078fe583e46497015460405163045fc19560e11b815260048101939093523360248401526080604484015260209183916001600160a01b03169082905f9082906113dd9060848301906111c8565b6008606483015203925af1908115610871575f9161146c575b507f9e7b61f58c47dc699ac88507c4f5bb9f121c03808c5676a8078fe583e4649700546001600160a01b0316803b1561015c57604051630f8e573b60e21b815260048101839052336024820152905f908290604490829084905af180156108715761145f575090565b5f61146991611224565b90565b90506020813d602011611496575b8161148760209383611224565b8101031261015c57515f6113f6565b3d915061147a565b507f9e7b61f58c47dc699ac88507c4f5bb9f121c03808c5676a8078fe583e4649700546040516382027b6d60e01b81526004810183905233602482015290602090829060449082906001600160a01b03165afa908115610871575f9161151e575b50156115085790565b630276b5d960e01b5f526004523360245260445ffd5b90506020813d602011611551575b8161153960209383611224565b8101031261015c5751801515810361015c575f6114ff565b3d915061152c56fea164736f6c634300081b000a",
  "linkReferences": {},
  "deployedLinkReferences": {}
}