{
  "_format": "hh-sol-artifact-1",
  "contractName": "AegisCare",
  "sourceName": "contracts/AegisCare.sol",
  "abi": [
    {
      "inputs": [],
      "stateMutability": "nonpayable",
      "type": "constructor"
    },
    {
      "inputs": [],
      "name": "ContractPaused",
      "type": "error"
    },
    {
      "inputs": [],
      "name": "InvalidEncryptedInput",
      "type": "error"
    },
    {
      "inputs": [],
      "name": "MaxTrialsReached",
      "type": "error"
    },
    {
      "inputs": [],
      "name": "NotAuthorized",
      "type": "error"
    },
    {
      "inputs": [],
      "name": "PatientNotFound",
      "type": "error"
    },
    {
      "inputs": [
        {
          "internalType": "bytes32",
          "name": "handle",
          "type": "bytes32"
        },
        {
          "internalType": "address",
          "name": "sender",
          "type": "address"
        }
      ],
      "name": "SenderNotAllowedToUseHandle",
      "type": "error"
    },
    {
      "inputs": [],
      "name": "TrialNotFound",
      "type": "error"
    },
    {
      "inputs": [],
      "name": "UnauthorizedAccess",
      "type": "error"
    },
    {
      "inputs": [],
      "name": "ZamaProtocolUnsupported",
      "type": "error"
    },
    {
      "anonymous": false,
      "inputs": [
        {
          "indexed": true,
          "internalType": "uint256",
          "name": "resultId",
          "type": "uint256"
        },
        {
          "indexed": true,
          "internalType": "uint256",
          "name": "trialId",
          "type": "uint256"
        },
        {
          "indexed": true,
          "internalType": "uint256",
          "name": "patientId",
          "type": "uint256"
        },
        {
          "indexed": false,
          "internalType": "uint256",
          "name": "computedAt",
          "type": "uint256"
        }
      ],
      "name": "EligibilityComputed",
      "type": "event"
    },
    {
      "anonymous": false,
      "inputs": [
        {
          "indexed": true,
          "internalType": "uint256",
          "name": "patientId",
          "type": "uint256"
        },
        {
          "indexed": true,
          "internalType": "address",
          "name": "patientAddress",
          "type": "address"
        },
        {
          "indexed": false,
          "internalType": "bytes32",
          "name": "publicKeyHash",
          "type": "bytes32"
        },
        {
          "indexed": false,
          "internalType": "uint256",
          "name": "registeredAt",
          "type": "uint256"
        }
      ],
      "name": "PatientRegistered",
      "type": "event"
    },
    {
      "anonymous": false,
      "inputs": [
        {
          "indexed": true,
          "internalType": "uint256",
          "name": "trialId",
          "type": "uint256"
        },
        {
          "indexed": false,
          "internalType": "string",
          "name": "trialName",
          "type": "string"
        },
        {
          "indexed": true,
          "internalType": "address",
          "name": "sponsor",
          "type": "address"
        },
        {
          "indexed": false,
          "internalType": "uint256",
          "name": "createdAt",
          "type": "uint256"
        }
      ],
      "name": "TrialRegistered",
      "type": "event"
    },
    {
      "inputs": [
        {
          "internalType": "uint256",
          "name": "_trialId",
          "type": "uint256"
        }
      ],
      "name": "checkEligibility",
      "outputs": [],
      "stateMutability": "nonpayable",
      "type": "function"
    },
    {
      "inputs": [
        {
          "internalType": "uint256",
          "name": "_trialId",
          "type": "uint256"
        },
        {
          "internalType": "address",
          "name": "_patientAddress",
          "type": "address"
        }
      ],
      "name": "computeEligibility",
      "outputs": [],
      "stateMutability": "nonpayable",
      "type": "function"
    },
    {
      "inputs": [],
      "name": "confidentialProtocolId",
      "outputs": [
        {
          "internalType": "uint256",
          "name": "",
          "type": "uint256"
        }
      ],
      "stateMutability": "view",
      "type": "function"
    },
    {
      "inputs": [
        {
          "internalType": "uint256",
          "name": "_trialId",
          "type": "uint256"
        }
      ],
      "name": "deactivateTrial",
      "outputs": [],
      "stateMutability": "nonpayable",
      "type": "function"
    },
    {
      "inputs": [
        {
          "internalType": "uint256",
          "name": "",
          "type": "uint256"
        },
        {
          "internalType": "uint256",
          "name": "",
          "type": "uint256"
        }
      ],
      "name": "eligibilityResults",
      "outputs": [
        {
          "internalType": "uint256",
          "name": "resultId",
          "type": "uint256"
        },
        {
          "internalType": "uint256",
          "name": "trialId",
          "type": "uint256"
        },
        {
          "internalType": "uint256",
          "name": "patientId",
          "type": "uint256"
        },
        {
          "internalType": "ebool",
          "name": "isEligible",
          "type": "bytes32"
        },
        {
          "internalType": "bool",
          "name": "decryptable",
          "type": "bool"
        },
        {
          "internalType": "bool",
          "name": "computed",
          "type": "bool"
        },
        {
          "internalType": "uint256",
          "name": "computedAt",
          "type": "uint256"
        }
      ],
      "stateMutability": "view",
      "type": "function"
    },
    {
      "inputs": [
        {
          "internalType": "uint256",
          "name": "_trialId",
          "type": "uint256"
        },
        {
          "internalType": "address",
          "name": "_patientAddress",
          "type": "address"
        }
      ],
      "name": "getEligibilityResult",
      "outputs": [
        {
          "internalType": "ebool",
          "name": "",
          "type": "bytes32"
        }
      ],
      "stateMutability": "view",
      "type": "function"
    },
    {
      "inputs": [
        {
          "internalType": "address",
          "name": "_patientAddress",
          "type": "address"
        }
      ],
      "name": "getPatientInfo",
      "outputs": [
        {
          "internalType": "uint256",
          "name": "patientId",
          "type": "uint256"
        },
        {
          "internalType": "bytes32",
          "name": "publicKeyHash",
          "type": "bytes32"
        },
        {
          "internalType": "uint256",
          "name": "registeredAt",
          "type": "uint256"
        }
      ],
      "stateMutability": "view",
      "type": "function"
    },
    {
      "inputs": [
        {
          "internalType": "address",
          "name": "_sponsor",
          "type": "address"
        }
      ],
      "name": "getSponsorTrialCount",
      "outputs": [
        {
          "internalType": "uint256",
          "name": "",
          "type": "uint256"
        }
      ],
      "stateMutability": "view",
      "type": "function"
    },
    {
      "inputs": [
        {
          "internalType": "uint256",
          "name": "_trialId",
          "type": "uint256"
        }
      ],
      "name": "getTrialInfo",
      "outputs": [
        {
          "internalType": "uint256",
          "name": "trialId",
          "type": "uint256"
        },
        {
          "internalType": "string",
          "name": "trialName",
          "type": "string"
        },
        {
          "internalType": "string",
          "name": "description",
          "type": "string"
        },
        {
          "internalType": "address",
          "name": "sponsor",
          "type": "address"
        },
        {
          "internalType": "bool",
          "name": "isActive",
          "type": "bool"
        },
        {
          "internalType": "uint256",
          "name": "createdAt",
          "type": "uint256"
        },
        {
          "internalType": "uint256",
          "name": "participantCount",
          "type": "uint256"
        }
      ],
      "stateMutability": "view",
      "type": "function"
    },
    {
      "inputs": [
        {
          "internalType": "uint256",
          "name": "_trialId",
          "type": "uint256"
        }
      ],
      "name": "getTrialPublicInfo",
      "outputs": [
        {
          "internalType": "string",
          "name": "trialName",
          "type": "string"
        },
        {
          "internalType": "string",
          "name": "description",
          "type": "string"
        },
        {
          "internalType": "address",
          "name": "sponsor",
          "type": "address"
        },
        {
          "internalType": "bool",
          "name": "isActive",
          "type": "bool"
        }
      ],
      "stateMutability": "view",
      "type": "function"
    },
    {
      "inputs": [
        {
          "internalType": "address",
          "name": "_patientAddress",
          "type": "address"
        }
      ],
      "name": "isPatientRegistered",
      "outputs": [
        {
          "internalType": "bool",
          "name": "",
          "type": "bool"
        }
      ],
      "stateMutability": "view",
      "type": "function"
    },
    {
      "inputs": [],
      "name": "owner",
      "outputs": [
        {
          "internalType": "address",
          "name": "",
          "type": "address"
        }
      ],
      "stateMutability": "view",
      "type": "function"
    },
    {
      "inputs": [],
      "name": "patientCount",
      "outputs": [
        {
          "internalType": "uint256",
          "name": "",
          "type": "uint256"
        }
      ],
      "stateMutability": "view",
      "type": "function"
    },
    {
      "inputs": [
        {
          "internalType": "address",
          "name": "",
          "type": "address"
        },
        {
          "internalType": "uint256",
          "name": "",
          "type": "uint256"
        }
      ],
      "name": "patientEligibilityChecks",
      "outputs": [
        {
          "internalType": "uint256",
          "name": "",
          "type": "uint256"
        }
      ],
      "stateMutability": "view",
      "type": "function"
    },
    {
      "inputs": [
        {
          "internalType": "address",
          "name": "",
          "type": "address"
        }
      ],
      "name": "patients",
      "outputs": [
        {
          "internalType": "uint256",
          "name": "patientId",
          "type": "uint256"
        },
        {
          "internalType": "euint8",
          "name": "age",
          "type": "bytes32"
        },
        {
          "internalType": "euint8",
          "name": "gender",
          "type": "bytes32"
        },
        {
          "internalType": "euint128",
          "name": "bmiScore",
          "type": "bytes32"
        },
        {
          "internalType": "euint8",
          "name": "hasMedicalCondition",
          "type": "bytes32"
        },
        {
          "internalType": "euint32",
          "name": "conditionCode",
          "type": "bytes32"
        },
        {
          "internalType": "bytes32",
          "name": "publicKeyHash",
          "type": "bytes32"
        },
        {
          "internalType": "uint256",
          "name": "registeredAt",
          "type": "uint256"
        }
      ],
      "stateMutability": "view",
      "type": "function"
    },
    {
      "inputs": [],
      "name": "pause",
      "outputs": [],
      "stateMutability": "nonpayable",
      "type": "function"
    },
    {
      "inputs": [],
      "name": "paused",
      "outputs": [
        {
          "internalType": "bool",
          "name": "",
          "type": "bool"
        }
      ],
      "stateMutability": "view",
      "type": "function"
    },
    {
      "inputs": [
        {
          "internalType": "externalEuint8",
          "name": "age",
          "type": "bytes32"
        },
        {
          "internalType": "externalEuint8",
          "name": "gender",
          "type": "bytes32"
        },
        {
          "internalType": "externalEuint128",
          "name": "bmiScore",
          "type": "bytes32"
        },
        {
          "internalType": "externalEuint8",
          "name": "hasMedicalCondition",
          "type": "bytes32"
        },
        {
          "internalType": "externalEuint32",
          "name": "conditionCode",
          "type": "bytes32"
        },
        {
          "internalType": "bytes",
          "name": "attestation",
          "type": "bytes"
        },
        {
          "internalType": "bytes32",
          "name": "publicKeyHash",
          "type": "bytes32"
        }
      ],
      "name": "registerPatient",
      "outputs": [],
      "stateMutability": "nonpayable",
      "type": "function"
    },
    {
      "inputs": [
        {
          "internalType": "string",
          "name": "_trialName",
          "type": "string"
        },
        {
          "internalType": "string",
          "name": "_description",
          "type": "string"
        },
        {
          "internalType": "externalEuint256",
          "name": "_minAge",
          "type": "bytes32"
        },
        {
          "internalType": "bytes",
          "name": "_minAgeProof",
          "type": "bytes"
        },
        {
          "internalType": "externalEuint256",
          "name": "_maxAge",
          "type": "bytes32"
        },
        {
          "internalType": "bytes",
          "name": "_maxAgeProof",
          "type": "bytes"
        },
        {
          "internalType": "externalEuint256",
          "name": "_requiredGender",
          "type": "bytes32"
        },
        {
          "internalType": "bytes",
          "name": "_genderProof",
          "type": "bytes"
        },
        {
          "internalType": "externalEuint256",
          "name": "_minBMIScore",
          "type": "bytes32"
        },
        {
          "internalType": "bytes",
          "name": "_minBMIProof",
          "type": "bytes"
        },
        {
          "internalType": "externalEuint256",
          "name": "_maxBMIScore",
          "type": "bytes32"
        },
        {
          "internalType": "bytes",
          "name": "_maxBMIProof",
          "type": "bytes"
        },
        {
          "internalType": "externalEuint256",
          "name": "_hasSpecificCondition",
          "type": "bytes32"
        },
        {
          "internalType": "bytes",
          "name": "_conditionProof",
          "type": "bytes"
        },
        {
          "internalType": "externalEuint256",
          "name": "_conditionCode",
          "type": "bytes32"
        },
        {
          "internalType": "bytes",
          "name": "_codeProof",
          "type": "bytes"
        }
      ],
      "name": "registerTrial",
      "outputs": [
        {
          "internalType": "uint256",
          "name": "",
          "type": "uint256"
        }
      ],
      "stateMutability": "nonpayable",
      "type": "function"
    },
    {
      "inputs": [
        {
          "internalType": "address",
          "name": "",
          "type": "address"
        },
        {
          "internalType": "uint256",
          "name": "",
          "type": "uint256"
        }
      ],
      "name": "sponsorTrials",
      "outputs": [
        {
          "internalType": "uint256",
          "name": "",
          "type": "uint256"
        }
      ],
      "stateMutability": "view",
      "type": "function"
    },
    {
      "inputs": [
        {
          "internalType": "address",
          "name": "_newOwner",
          "type": "address"
        }
      ],
      "name": "transferOwnership",
      "outputs": [],
      "stateMutability": "nonpayable",
      "type": "function"
    },
    {
      "inputs": [],
      "name": "trialCount",
      "outputs": [
        {
          "internalType": "uint256",
          "name": "",
          "type": "uint256"
        }
      ],
      "stateMutability": "view",
      "type": "function"
    },
    {
      "inputs": [
        {
          "internalType": "uint256",
          "name": "",
          "type": "uint256"
        }
      ],
      "name": "trials",
      "outputs": [
        {
          "internalType": "uint256",
          "name": "trialId",
          "type": "uint256"
        },
        {
          "internalType": "string",
          "name": "trialName",
          "type": "string"
        },
        {
          "internalType": "string",
          "name": "description",
          "type": "string"
        },
        {
          "internalType": "euint256",
          "name": "minAge",
          "type": "bytes32"
        },
        {
          "internalType": "euint256",
          "name": "maxAge",
          "type": "bytes32"
        },
        {
          "internalType": "euint256",
          "name": "requiredGender",
          "type": "bytes32"
        },
        {
          "internalType": "euint256",
          "name": "minBMIScore",
          "type": "bytes32"
        },
        {
          "internalType": "euint256",
          "name": "maxBMIScore",
          "type": "bytes32"
        },
        {
          "internalType": "euint256",
          "name": "hasSpecificCondition",
          "type": "bytes32"
        },
        {
          "internalType": "euint256",
          "name": "conditionCode",
          "type": "bytes32"
        },
        {
          "internalType": "address",
          "name": "sponsor",
          "type": "address"
        },
        {
          "internalType": "bool",
          "name": "isActive",
          "type": "bool"
        },
        {
          "internalType": "uint256",
          "name": "createdAt",
          "type": "uint256"
        },
        {
          "internalType": "uint256",
          "name": "participantCount",
          "type": "uint256"
        }
      ],
      "stateMutability": "view",
      "type": "function"
    },
    {
      "inputs": [],
      "name": "unpause",
      "outputs": [],
      "stateMutability": "nonpayable",
      "type": "function"
    }
  ],
  "bytecode": "0x6080604052346102355761001161026c565b50466001036101515761002261026c565b5061002b610239565b73ca2e8f1f656cd25c01f05d0b243ab1ecd4a8ffb6815273d82385dada1ae3e969447f20a3164f6213100e7560208201527377627828a55156b04ac0dc0eb30467f1a552bb0360408201525b80517f9e7b61f58c47dc699ac88507c4f5bb9f121c03808c5676a8078fe583e464970080546001600160a01b03199081166001600160a01b039384161790915560208301517f9e7b61f58c47dc699ac88507c4f5bb9f121c03808c5676a8078fe583e4649701805483169184169190911790556040928301517f9e7b61f58c47dc699ac88507c4f5bb9f121c03808c5676a8078fe583e464970280549092169216919091179055600780546001600160a81b0319163360081b610100600160a81b03161790555f80805560015551611c2390816102878239f35b4662aa36a7036101bc5761016361026c565b5061016c610239565b73f0ffdc93b7e186bc2f8cb3daa75d86d1930a433d81527392c920834ec8941d2c77d188936e1f7a6f49c127602082015273be0e383937d564d7ff0bc3b46c51f0bf8d5c311a6040820152610077565b46617a6903610226576101cd61026c565b506101d6610239565b7350157cffd6bbfa2dece204a89ec419c23ef5755d815273e3a9105a3a932253a70f126eb1e3b589c643dd24602082015273901f8942346f7ab3a01f6d7613119bca447bb0306040820152610077565b6373cac13b60e01b5f5260045ffd5b5f80fd5b60405190606082016001600160401b0381118382101761025857604052565b634e487b7160e01b5f52604160045260245ffd5b610274610239565b905f82525f60208301525f604083015256fe610100806040526004361015610013575f80fd5b5f3560e01c908163010b5c1f146112a8575080630869cfbc146112235780630df93389146111da5780630e89a55314610fc65780630fafb02e14610f6b5780631cc4d75214610f335780631de5686a14610f17578063202229d214610e9057806331e55c79146108505780633f4ba83a146108205780634b426178146107d15780634fd3ddda146107795780635c975abb146107575780637b39fed61461061a57806380b6b1b8146105e05780638456cb59146105ad5780638927b0301461058b5780638da5cb5b1461055f57806395a8bd15146104bf578063a0303c41146104a2578063cbd7b775146102e3578063cf36002d146101ec578063dd1f54161461018c5763f2fde38b14610125575f80fd5b346101885760203660031901126101885761013e611323565b60075490600882901c6001600160a01b0316330361017957610100600160a81b031990911660089190911b610100600160a81b031617600755005b631a27eac360e11b5f5260045ffd5b5f80fd5b34610188576020366003190112610188576004355f818152600260205260409020600a01546001600160a01b031633036101dd575f908152600260205260409020600a01805460ff60a01b19169055005b63ea8e4eb560e01b5f5260045ffd5b34610188576020366003190112610188576004355f52600260205260405f2080546001820161021a9061143d565b916102276002820161143d565b6003820154916004810154600582015460068301546007840154600885015491600986015493600a87015495600b88015497600c0154986040519c8d9c8d5260208d016101c090526101c08d0161027d916113a5565b8c810360408e015261028e916113a5565b9960608c015260808b015260a08a015260c089015260e0880152610100870152610120860152600160a01b60019003811661014086015260a01c60ff1615156101608501526101808401526101a08301520390f35b34610188576040366003190112610188576004356102ff611339565b60ff60075416610493576001600160a01b03165f81815260036020526040902080549192911561048457815f52600260205260405f2080541561047557600c0161034981546114dd565b90556103556001611b59565b92620f4240830293838504620f4240148415171561046157600561037b84548097611564565b956040519261038984611401565b8784526020840187815260408501918383526060860190815260808601926001845260a08701926001845260c08801954287528b5f52600460205260405f20905f5260205260405f20975188555160018801555160028701555160038601556104056004860192511515839060ff801983541691151516179055565b51151561ff0082549160081b169061ff001916179055519101555f5260056020526104338360405f20611530565b54917f2c159a4d5e68373a796ad24f9288e9a21240a127ba632ceba5e32cad0f6881206020604051428152a4005b634e487b7160e01b5f52601160045260245ffd5b630db925cb60e01b5f5260045ffd5b63595b36fd60e01b5f5260045ffd5b63ab35696f60e01b5f5260045ffd5b34610188575f366003190112610188576020600154604051908152f35b34610188576020366003190112610188576004355f52600260205260405f208054600a820154600b830154600c8401549060ff61053761050d600261050660018a0161143d565b980161143d565b610529604051988998895260e060208a015260e08901906113a5565b9087820360408901526113a5565b9360018060a01b038116606087015260a01c161515608085015260a084015260c08301520390f35b34610188575f3660031901126101885760075460405160089190911c6001600160a01b03168152602090f35b34610188575f3660031901126101885760206105a5611a42565b604051908152f35b34610188575f36600319011261018857600754600881901c6001600160a01b031633036101795760ff1916600117600755005b34610188576020366003190112610188576001600160a01b03610601611323565b165f526003602052602060405f20541515604051908152f35b346101885760203660031901126101885760043560ff6007541661049357335f52600360205260405f209081541561048457805f52600260205260405f2080541561047557600c0161066c81546114dd565b90556106786001611b59565b91620f4240820292828404620f4240148315171561046157600561069e83548096611564565b94604051926106ac84611401565b8684526020840186815260408501918383526060860190815260808601926001845260a08701926001845260c08801954287528a5f52600460205260405f20905f5260205260405f20975188555160018801555160028701555160038601556107286004860192511515839060ff801983541691151516179055565b51151561ff0082549160081b169061ff00191617905551910155335f5260056020526104338360405f20611530565b34610188575f36600319011261018857602060ff600754166040519015158152f35b3461018857604036600319011261018857610792611323565b6001600160a01b03165f90815260066020526040902080546024359190821015610188576020916107c29161134f565b90549060031b1c604051908152f35b34610188576020366003190112610188576001600160a01b036107f2611323565b165f526003602052606060405f20805490600760068201549101549060405192835260208301526040820152f35b34610188575f36600319011261018857600754600881901c6001600160a01b031633036101795760ff1916600755005b3461018857610200366003190112610188576004356001600160401b03811161018857610881903690600401611378565b60a0526024356001600160401b038111610188576108a3903690600401611378565b6064929192356001600160401b038111610188576108c5903690600401611378565b60e05260a4356001600160401b038111610188576108e7903690600401611378565b6080529060e4356001600160401b0381116101885761090a903690600401611378565b9190610124356001600160401b0381116101885761092c903690600401611378565b92610164356001600160401b0381116101885761094d903690600401611378565b9190926101a4356001600160401b03811161018857610970903690600401611378565b9490916101e4356001600160401b03811161018857610993903690600401611378565b97909460ff6007541661049357335f52600660205260405f2060c052603260c051541015610e81575f546109c6906114dd565b5f553660e0516109d5926114eb565b6109e19060443561198e565b9a366080516109ef926114eb565b6109fb9060843561198e565b993690610a07926114eb565b610a139060c43561198e565b973690610a1f926114eb565b610a2c906101043561198e565b933690610a38926114eb565b610a45906101443561198e565b933690610a51926114eb565b610a5e906101843561198e565b933690610a6a926114eb565b610a77906101c43561198e565b935f54956040519a6101c08c01908c82106001600160401b03831117610da5578c9a6020610ab48e8c8f610ac09760405252369060a051906114eb565b9c019b8c5236916114eb565b9760408c0198895260608c015260808b015260a08a015260c089015260e0880152610100870152610120860152336101408601526001610160860152426101808601525f6101a08601525f52600260205260405f209184518355518051906001600160401b038211610da5578190610b3b60018601546113c9565b601f8111610e31575b50602090601f8311600114610dc4575f92610db9575b50508160011b915f199060031b1c19161760018301555b519283516001600160401b038111610da557610b9060028401546113c9565b94601f8611610d61575b602095508590601f8311600114610cf1579180600c94926101a0945f92610ce6575b50508160011b915f199060031b1c19161760028501555b606081015160038501556080810151600485015560a080820151600586015560c080830151600687015560e0830151600787015561010083015160088701556101208301516009870155610140830151600a870180546101608601516001600160a81b03199091166001600160a01b03939093169290921791151590931b60ff60a01b1617909155610180820151600b86015591015191909201555f549051610c7c9190611530565b5f5490604051906040825260a051604083015260a0519060608301375f606060a051830101524283820152817fd7f73c54d6ce2e345bf6c2f008a3418ea55e0f8a22b16162b0081c08081bda763392606081601f19601f60a05101168101030190a3604051908152f35b015190508880610bbc565b90600285015f52805f20915f5b601f1985168110610d4a575092600c94926001926101a09583601f19811610610d32575b505050811b016002850155610bd3565b01515f1960f88460031b161c19169055888080610d22565b919288600181928685015181550194019201610cfe565b600284015f5260205f20601f830160051c810160208410610d9e575b601f880160051c82018110610d93575050610b9a565b5f8155600101610d7d565b5080610d7d565b634e487b7160e01b5f52604160045260245ffd5b015190508680610b5a565b9250600185015f52805f20905f935b601f1984168510610e16576001945083601f19811610610dfe575b505050811b016001830155610b71565b01515f1960f88460031b161c19169055868080610dee565b81810151835560209485019460019093019290910190610dd3565b909150600185015f5260205f20601f840160051c810160208510610e7a575b90849392915b601f830160051c82018110610e6c575050610b44565b5f8155859450600101610e56565b5080610e50565b632457379b60e11b5f5260045ffd5b34610188576020366003190112610188576004355f526002602052610ee860405f20600a81015460ff610ef6610ed46002610ecd6001870161143d565b950161143d565b6040519586956080875260808701906113a5565b9085820360208701526113a5565b6001600160a01b038316604085015260a09290921c16151560608301520390f35b34610188575f3660031901126101885760205f54604051908152f35b34610188576020366003190112610188576001600160a01b03610f54611323565b165f526006602052602060405f2054604051908152f35b34610188576040366003190112610188576001600160a01b03610f8c611339565b168033036101dd576004355f52600460205260405f20905f52600360205260405f20545f526020526020600360405f200154604051908152f35b346101885760e03660031901126101885760a4356001600160401b03811161018857610ff6903690600401611378565b9060c4359160ff6007541661049357335f52600360205260405f20546111cb576110216001546114dd565b60015561103a6110323683856114eb565b60043561158a565b6110506110483684866114eb565b60243561158a565b61109361108b61106c6110643687896114eb565b6044356116c4565b9561108361107b3688846114eb565b60643561158a565b9536916114eb565b608435611778565b61109d308461182c565b506110a8308361182c565b506110b330866118c6565b506110be308561182c565b506110c9308261192a565b506110d4338461182c565b506110df338361182c565b506110ea33866118c6565b506110f5338561182c565b50611100338261192a565b5060015493604051956101008701958787106001600160401b03881117610da55760079660405287526020870194855260408701938452606087019081526080870191825260a0870192835260c087019388855260e0880195428752335f52600360205260405f2098518955516001890155516002880155516003870155516004860155516005850155516006840155519101556001546040519182524260208301527f47336259ce8e91157b9813c07e1e9699e56667ed1e16d277ace641f30455a04760403393a3005b634fe47f7760e01b5f5260045ffd5b34610188576040366003190112610188576111f3611323565b6001600160a01b03165f90815260056020526040902080546024359190821015610188576020916107c29161134f565b34610188576020366003190112610188576001600160a01b03611244611323565b165f52600360205261010060405f20805490600181015490600281015460038201546004830154906005840154926007600686015495015495604051978852602088015260408701526060860152608085015260a084015260c083015260e0820152f35b346101885760403660031901126101885760e0906004355f52600460205260405f206024355f5260205260405f2060ff81549160018101546002820154600383015491600560048501549401549587526020870152604086015260608501528181161515608085015260081c16151560a083015260c0820152f35b600435906001600160a01b038216820361018857565b602435906001600160a01b038216820361018857565b8054821015611364575f5260205f2001905f90565b634e487b7160e01b5f52603260045260245ffd5b9181601f84011215610188578235916001600160401b038311610188576020838186019501011161018857565b805180835260209291819084018484015e5f828201840152601f01601f1916010190565b90600182811c921680156113f7575b60208310146113e357565b634e487b7160e01b5f52602260045260245ffd5b91607f16916113d8565b60e081019081106001600160401b03821117610da557604052565b90601f801991011681019081106001600160401b03821117610da557604052565b9060405191825f825492611450846113c9565b80845293600181169081156114bb5750600114611477575b506114759250038361141c565b565b90505f9291925260205f20905f915b81831061149f575050906020611475928201015f611468565b6020919350806001915483858901015201910190918492611486565b90506020925061147594915060ff191682840152151560051b8201015f611468565b5f1981146104615760010190565b9291926001600160401b038211610da55760405191611514601f8201601f19166020018461141c565b829481845281830111610188578281602093845f960137010152565b8054600160401b811015610da55761154d9160018201815561134f565b819291549060031b91821b915f19901b1916179055565b9190820180921161046157565b9081526001600160a01b03909116602082015260400190565b81519091901561169b575f516020611bd75f395f51905f525460405163045fc19560e11b81526004810193909352336024840152608060448401526001600160a01b0316906115dd9060848401906113a5565b602091835f8180946002606483015203925af190811561165e575f91611669575b505f516020611bf75f395f51905f52546001600160a01b0316803b15610188575f6040518092630f8e573b60e21b825281838161163f338960048401611571565b03925af1801561165e57611651575090565b5f61165b9161141c565b90565b6040513d5f823e3d90fd5b90506020813d602011611693575b816116846020938361141c565b8101031261018857515f6115fe565b3d9150611677565b506116a63382611a71565b156116ae5790565b630276b5d960e01b5f526004523360245260445ffd5b81519091901561169b575f516020611bd75f395f51905f525460405163045fc19560e11b81526004810193909352336024840152608060448401526001600160a01b0316906117179060848401906113a5565b602091835f8180946006606483015203925af190811561165e575f9161166957505f516020611bf75f395f51905f52546001600160a01b0316803b15610188575f6040518092630f8e573b60e21b825281838161163f338960048401611571565b81519091901561169b575f516020611bd75f395f51905f525460405163045fc19560e11b81526004810193909352336024840152608060448401526001600160a01b0316906117cb9060848401906113a5565b602091835f8180946004606483015203925af190811561165e575f9161166957505f516020611bf75f395f51905f52546001600160a01b0316803b15610188575f6040518092630f8e573b60e21b825281838161163f338960048401611571565b90811561183e575b61165b9082611afb565b5f516020611bd75f395f51905f5254604051639cd07acb60e01b81525f60048201529192506001600160a01b0316816044815f602094600260248401525af1801561165e575f90611892575b919050611834565b506020813d6020116118be575b816118ac6020938361141c565b810103126101885761165b905161188a565b3d915061189f565b9081156118d75761165b9082611afb565b5f516020611bd75f395f51905f5254604051639cd07acb60e01b81525f60048201529192506001600160a01b0316816044815f602094600660248401525af1801561165e575f9061189257919050611834565b90811561193b5761165b9082611afb565b5f516020611bd75f395f51905f5254604051639cd07acb60e01b81525f60048201529192506001600160a01b0316816044815f602094600460248401525af1801561165e575f9061189257919050611834565b81519091901561169b575f516020611bd75f395f51905f525460405163045fc19560e11b81526004810193909352336024840152608060448401526001600160a01b0316906119e19060848401906113a5565b602091835f8180946008606483015203925af190811561165e575f9161166957505f516020611bf75f395f51905f52546001600160a01b0316803b15610188575f6040518092630f8e573b60e21b825281838161163f338960048401611571565b46600103611a4f57600190565b4662aa36a703611a5f5761271190565b617a694614611a6c575f90565b5f1990565b5f516020611bf75f395f51905f52546040516382027b6d60e01b81529260209284926001600160a01b03169183918291611aae9160048401611571565b03915afa90811561165e575f91611ac3575090565b90506020813d602011611af3575b81611ade6020938361141c565b81010312610188575180151581036101885790565b3d9150611ad1565b5f516020611bf75f395f51905f52546001600160a01b031691823b1561018857611b3e925f9283604051809681958294635ca4b5b160e11b845260048401611571565b03925af1801561165e57611b4f5750565b5f6114759161141c565b5f516020611bd75f395f51905f5254604051639cd07acb60e01b815260048101929092526001600160a01b0316816044815f6020948160248401525af190811561165e575f91611ba7575090565b90506020813d602011611bce575b81611bc26020938361141c565b81010312610188575190565b3d9150611bb556fe9e7b61f58c47dc699ac88507c4f5bb9f121c03808c5676a8078fe583e46497019e7b61f58c47dc699ac88507c4f5bb9f121c03808c5676a8078fe583e4649700a164736f6c634300081b000a",
  "linkReferences": {},
  "deployedLinkReferences": {}
}